{
  "contractName": "Appreciative",
  "abi": [
    {
      "inputs": [
        {
          "internalType": "address",
          "name": "_creator",
          "type": "address"
        },
        {
          "internalType": "string",
          "name": "_name",
          "type": "string"
        }
      ],
      "stateMutability": "nonpayable",
      "type": "constructor"
    },
    {
      "anonymous": false,
      "inputs": [
        {
          "indexed": false,
          "internalType": "address",
          "name": "member",
          "type": "address"
        },
        {
          "indexed": false,
          "internalType": "string",
          "name": "name",
          "type": "string"
        }
      ],
      "name": "AddedMember",
      "type": "event"
    },
    {
      "anonymous": false,
      "inputs": [
        {
          "indexed": false,
          "internalType": "string",
          "name": "namefrom",
          "type": "string"
        },
        {
          "indexed": false,
          "internalType": "string",
          "name": "nameto",
          "type": "string"
        }
      ],
      "name": "ChangedName",
      "type": "event"
    },
    {
      "anonymous": false,
      "inputs": [
        {
          "indexed": false,
          "internalType": "address",
          "name": "holon",
          "type": "address"
        },
        {
          "indexed": false,
          "internalType": "string",
          "name": "token",
          "type": "string"
        },
        {
          "indexed": false,
          "internalType": "uint256",
          "name": "amount",
          "type": "uint256"
        }
      ],
      "name": "HolonRewarded",
      "type": "event"
    },
    {
      "anonymous": false,
      "inputs": [
        {
          "indexed": false,
          "internalType": "address",
          "name": "member",
          "type": "address"
        },
        {
          "indexed": false,
          "internalType": "string",
          "name": "token",
          "type": "string"
        },
        {
          "indexed": false,
          "internalType": "uint256",
          "name": "amount",
          "type": "uint256"
        }
      ],
      "name": "MemberRewarded",
      "type": "event"
    },
    {
      "anonymous": false,
      "inputs": [
        {
          "indexed": false,
          "internalType": "address",
          "name": "member",
          "type": "address"
        },
        {
          "indexed": false,
          "internalType": "string",
          "name": "name",
          "type": "string"
        }
      ],
      "name": "RemovedMember",
      "type": "event"
    },
    {
      "stateMutability": "payable",
      "type": "fallback"
    },
    {
      "inputs": [
        {
          "internalType": "address",
          "name": "_parentaddress",
          "type": "address"
        }
      ],
      "name": "addParent",
      "outputs": [],
      "stateMutability": "nonpayable",
      "type": "function"
    },
    {
      "inputs": [
        {
          "internalType": "address",
          "name": "",
          "type": "address"
        }
      ],
      "name": "appreciation",
      "outputs": [
        {
          "internalType": "uint256",
          "name": "",
          "type": "uint256"
        }
      ],
      "stateMutability": "view",
      "type": "function"
    },
    {
      "inputs": [
        {
          "internalType": "address",
          "name": "_address",
          "type": "address"
        },
        {
          "internalType": "string",
          "name": "_name",
          "type": "string"
        }
      ],
      "name": "changeName",
      "outputs": [],
      "stateMutability": "nonpayable",
      "type": "function"
    },
    {
      "inputs": [],
      "name": "creator",
      "outputs": [
        {
          "internalType": "address",
          "name": "",
          "type": "address"
        }
      ],
      "stateMutability": "view",
      "type": "function"
    },
    {
      "inputs": [],
      "name": "flavor",
      "outputs": [
        {
          "internalType": "string",
          "name": "",
          "type": "string"
        }
      ],
      "stateMutability": "view",
      "type": "function"
    },
    {
      "inputs": [],
      "name": "getSize",
      "outputs": [
        {
          "internalType": "uint256",
          "name": "",
          "type": "uint256"
        }
      ],
      "stateMutability": "view",
      "type": "function"
    },
    {
      "inputs": [
        {
          "internalType": "address",
          "name": "",
          "type": "address"
        }
      ],
      "name": "isMember",
      "outputs": [
        {
          "internalType": "bool",
          "name": "",
          "type": "bool"
        }
      ],
      "stateMutability": "view",
      "type": "function"
    },
    {
      "inputs": [],
      "name": "listMembers",
      "outputs": [
        {
          "internalType": "address payable[]",
          "name": "",
          "type": "address[]"
        }
      ],
      "stateMutability": "view",
      "type": "function"
    },
    {
      "inputs": [],
      "name": "listParents",
      "outputs": [
        {
          "internalType": "address[]",
          "name": "",
          "type": "address[]"
        }
      ],
      "stateMutability": "view",
      "type": "function"
    },
    {
      "inputs": [],
      "name": "manifest",
      "outputs": [
        {
          "internalType": "string",
          "name": "",
          "type": "string"
        }
      ],
      "stateMutability": "view",
      "type": "function"
    },
    {
      "inputs": [],
      "name": "name",
      "outputs": [
        {
          "internalType": "string",
          "name": "",
          "type": "string"
        }
      ],
      "stateMutability": "view",
      "type": "function"
    },
    {
      "inputs": [
        {
          "internalType": "string",
          "name": "_flavor",
          "type": "string"
        },
        {
          "internalType": "string",
          "name": "_name",
          "type": "string"
        },
        {
          "internalType": "uint256",
          "name": "_parameter",
          "type": "uint256"
        }
      ],
      "name": "newHolon",
      "outputs": [
        {
          "internalType": "address",
          "name": "",
          "type": "address"
        }
      ],
      "stateMutability": "nonpayable",
      "type": "function"
    },
    {
      "inputs": [
        {
          "internalType": "address",
          "name": "",
          "type": "address"
        }
      ],
      "name": "remainingappreciation",
      "outputs": [
        {
          "internalType": "uint8",
          "name": "",
          "type": "uint8"
        }
      ],
      "stateMutability": "view",
      "type": "function"
    },
    {
      "inputs": [
        {
          "internalType": "address",
          "name": "_memberaddress",
          "type": "address"
        }
      ],
      "name": "removeMember",
      "outputs": [],
      "stateMutability": "nonpayable",
      "type": "function"
    },
    {
      "inputs": [
        {
          "internalType": "string",
          "name": "_IPFSHash",
          "type": "string"
        }
      ],
      "name": "setManifest",
      "outputs": [],
      "stateMutability": "nonpayable",
      "type": "function"
    },
    {
      "inputs": [
        {
          "internalType": "string",
          "name": "",
          "type": "string"
        }
      ],
      "name": "toAddress",
      "outputs": [
        {
          "internalType": "address",
          "name": "",
          "type": "address"
        }
      ],
      "stateMutability": "view",
      "type": "function"
    },
    {
      "inputs": [
        {
          "internalType": "address",
          "name": "",
          "type": "address"
        }
      ],
      "name": "toName",
      "outputs": [
        {
          "internalType": "string",
          "name": "",
          "type": "string"
        }
      ],
      "stateMutability": "view",
      "type": "function"
    },
    {
      "inputs": [],
      "name": "totalappreciation",
      "outputs": [
        {
          "internalType": "uint256",
          "name": "",
          "type": "uint256"
        }
      ],
      "stateMutability": "view",
      "type": "function"
    },
    {
      "inputs": [],
      "name": "version",
      "outputs": [
        {
          "internalType": "string",
          "name": "",
          "type": "string"
        }
      ],
      "stateMutability": "view",
      "type": "function"
    },
    {
      "stateMutability": "payable",
      "type": "receive"
    },
    {
      "inputs": [
        {
          "internalType": "address",
          "name": "_memberaddress",
          "type": "address"
        },
        {
          "internalType": "uint8",
          "name": "_percentage",
          "type": "uint8"
        }
      ],
      "name": "appreciate",
      "outputs": [],
      "stateMutability": "nonpayable",
      "type": "function"
    },
    {
      "inputs": [
        {
          "internalType": "address",
          "name": "_parent",
          "type": "address"
        },
        {
          "internalType": "address",
          "name": "_sibling",
          "type": "address"
        },
        {
          "internalType": "uint8",
          "name": "_percentage",
          "type": "uint8"
        }
      ],
      "name": "appreciateSibling",
      "outputs": [],
      "stateMutability": "nonpayable",
      "type": "function"
    },
    {
      "inputs": [],
      "name": "resetAppreciation",
      "outputs": [],
      "stateMutability": "nonpayable",
      "type": "function"
    },
    {
      "inputs": [
        {
          "internalType": "address",
          "name": "_memberaddress",
          "type": "address"
        },
        {
          "internalType": "string",
          "name": "_membername",
          "type": "string"
        }
      ],
      "name": "addMember",
      "outputs": [],
      "stateMutability": "nonpayable",
      "type": "function"
    },
    {
      "inputs": [
        {
          "internalType": "address",
          "name": "_tokenaddress",
          "type": "address"
        },
        {
          "internalType": "uint256",
          "name": "_tokenamount",
          "type": "uint256"
        }
      ],
      "name": "reward",
      "outputs": [],
      "stateMutability": "payable",
      "type": "function"
    }
  ],
  "bytecode": "0x60806040523480156200001157600080fd5b5060405162003fe538038062003fe5833981810160405281019062000037919062000269565b32600260006101000a81548173ffffffffffffffffffffffffffffffffffffffff021916908373ffffffffffffffffffffffffffffffffffffffff16021790555080600790805190602001906200009092919062000130565b5081600a60006101000a81548173ffffffffffffffffffffffffffffffffffffffff021916908373ffffffffffffffffffffffffffffffffffffffff1602179055506040518060400160405280600c81526020017f4170707265636961746976650000000000000000000000000000000000000000815250600990805190602001906200011f92919062000130565b506000600b81905550505062000442565b8280546200013e9062000394565b90600052602060002090601f016020900481019282620001625760008555620001ae565b82601f106200017d57805160ff1916838001178555620001ae565b82800160010185558215620001ae579182015b82811115620001ad57825182559160200191906001019062000190565b5b509050620001bd9190620001c1565b5090565b5b80821115620001dc576000816000905550600101620001c2565b5090565b6000620001f7620001f184620002f7565b620002c3565b9050828152602081018484840111156200021057600080fd5b6200021d8482856200035e565b509392505050565b600081519050620002368162000428565b92915050565b600082601f8301126200024e57600080fd5b815162000260848260208601620001e0565b91505092915050565b600080604083850312156200027d57600080fd5b60006200028d8582860162000225565b925050602083015167ffffffffffffffff811115620002ab57600080fd5b620002b9858286016200023c565b9150509250929050565b6000604051905081810181811067ffffffffffffffff82111715620002ed57620002ec620003f9565b5b8060405250919050565b600067ffffffffffffffff821115620003155762000314620003f9565b5b601f19601f8301169050602081019050919050565b600062000337826200033e565b9050919050565b600073ffffffffffffffffffffffffffffffffffffffff82169050919050565b60005b838110156200037e57808201518184015260208101905062000361565b838111156200038e576000848401525b50505050565b60006002820490506001821680620003ad57607f821691505b60208210811415620003c457620003c3620003ca565b5b50919050565b7f4e487b7100000000000000000000000000000000000000000000000000000000600052602260045260246000fd5b7f4e487b7100000000000000000000000000000000000000000000000000000000600052604160045260246000fd5b62000433816200032a565b81146200043f57600080fd5b50565b613b9380620004526000396000f3fe60806040526004361061014f5760003560e01c8063a230c524116100b6578063cf1327bc1161006f578063cf1327bc1461048d578063d3980103146104b6578063de8fa431146104f3578063f59e4f651461051e578063f5baf0d714610549578063ff4616431461057457610161565b8063a230c5241461037f578063acf36e53146103bc578063b6afd2ca146103e5578063b766f86f14610410578063b9e78f8f1461043b578063c127c2471461046457610161565b80633113a2ae116101085780633113a2ae1461026f57806345ca25ed1461029a57806354fd4d50146102c357806362278f1c146102ee5780637e4115ba1461030557806381bc3f8c1461034257610161565b806302d05d3f1461016e57806306fdde03146101995780630b1ca49a146101c45780630babba86146101ed57806321670f221461022a57806329b84d091461024657610161565b366101615761015f6000346105b1565b005b61016c6000346105b1565b005b34801561017a57600080fd5b50610183610bae565b6040516101909190613273565b60405180910390f35b3480156101a557600080fd5b506101ae610bd4565b6040516101bb9190613411565b60405180910390f35b3480156101d057600080fd5b506101eb60048036038101906101e69190612699565b610c62565b005b3480156101f957600080fd5b50610214600480360381019061020f9190612874565b61104c565b6040516102219190613273565b60405180910390f35b610244600480360381019061023f919061278e565b6105b1565b005b34801561025257600080fd5b5061026d6004803603810190610268919061282f565b611113565b005b34801561027b57600080fd5b506102846111b9565b6040516102919190613369565b60405180910390f35b3480156102a657600080fd5b506102c160048036038101906102bc919061273a565b611247565b005b3480156102cf57600080fd5b506102d861146f565b6040516102e59190613411565b60405180910390f35b3480156102fa57600080fd5b506103036114fd565b005b34801561031157600080fd5b5061032c600480360381019061032791906128fd565b6116c2565b6040516103399190613273565b60405180910390f35b34801561034e57600080fd5b5061036960048036038101906103649190612699565b61170b565b6040516103769190613411565b60405180910390f35b34801561038b57600080fd5b506103a660048036038101906103a19190612699565b6117ab565b6040516103b391906133ad565b60405180910390f35b3480156103c857600080fd5b506103e360048036038101906103de9190612699565b6117cb565b005b3480156103f157600080fd5b506103fa611831565b604051610407919061338b565b60405180910390f35b34801561041c57600080fd5b506104256118bf565b604051610432919061366a565b60405180910390f35b34801561044757600080fd5b50610462600480360381019061045d91906127ca565b6118c5565b005b34801561047057600080fd5b5061048b6004803603810190610486919061273a565b611b95565b005b34801561049957600080fd5b506104b460048036038101906104af91906126eb565b611bfc565b005b3480156104c257600080fd5b506104dd60048036038101906104d89190612699565b611cfe565b6040516104ea919061366a565b60405180910390f35b3480156104ff57600080fd5b50610508611d16565b604051610515919061366a565b60405180910390f35b34801561052a57600080fd5b50610533611d22565b6040516105409190613411565b60405180910390f35b34801561055557600080fd5b5061055e611db0565b60405161056b9190613411565b60405180910390f35b34801561058057600080fd5b5061059b60048036038101906105969190612699565b611e3e565b6040516105a89190613685565b60405180910390f35b6000806000341180156105f05750600073ffffffffffffffffffffffffffffffffffffffff168473ffffffffffffffffffffffffffffffffffffffff16145b1561060157349250600191506106d0565b839050828173ffffffffffffffffffffffffffffffffffffffff166370a08231306040518263ffffffff1660e01b815260040161063e9190613273565b60206040518083038186803b15801561065657600080fd5b505afa15801561066a573d6000803e3d6000fd5b505050506040513d601f19601f8201168201806040525081019061068e919061293e565b10156106cf576040517f08c379a00000000000000000000000000000000000000000000000000000000081526004016106c6906135ea565b60405180910390fd5b5b600080600090505b600080549050811015610ba6576000600b5411156107c0576107b9610708600b5487611e5e90919063ffffffff16565b600c6000808581548110610745577f4e487b7100000000000000000000000000000000000000000000000000000000600052603260045260246000fd5b9060005260206000200160009054906101000a900473ffffffffffffffffffffffffffffffffffffffff1673ffffffffffffffffffffffffffffffffffffffff1673ffffffffffffffffffffffffffffffffffffffff16815260200190815260200160002054611eb690919063ffffffff16565b91506107db565b6107d860008054905086611e5e90919063ffffffff16565b91505b6000821115610b935783156108ff576000808281548110610825577f4e487b7100000000000000000000000000000000000000000000000000000000600052603260045260246000fd5b9060005260206000200160009054906101000a900473ffffffffffffffffffffffffffffffffffffffff1673ffffffffffffffffffffffffffffffffffffffff16836040516108739061325e565b60006040518083038185875af1925050503d80600081146108b0576040519150601f19603f3d011682016040523d82523d6000602084013e6108b5565b606091505b50509050806108f9576040517f08c379a00000000000000000000000000000000000000000000000000000000081526004016108f09061346a565b60405180910390fd5b50610b92565b8273ffffffffffffffffffffffffffffffffffffffff1663a9059cbb60008381548110610955577f4e487b7100000000000000000000000000000000000000000000000000000000600052603260045260246000fd5b9060005260206000200160009054906101000a900473ffffffffffffffffffffffffffffffffffffffff16846040518363ffffffff1660e01b815260040161099e92919061328e565b602060405180830381600087803b1580156109b857600080fd5b505af11580156109cc573d6000803e3d6000fd5b505050506040513d601f19601f820116820180604052508101906109f09190612806565b506000808281548110610a2c577f4e487b7100000000000000000000000000000000000000000000000000000000600052603260045260246000fd5b9060005260206000200160009054906101000a900473ffffffffffffffffffffffffffffffffffffffff1673ffffffffffffffffffffffffffffffffffffffff168784604051602401610a80929190613317565b6040516020818303038152906040527f21670f22000000000000000000000000000000000000000000000000000000007bffffffffffffffffffffffffffffffffffffffffffffffffffffffff19166020820180517bffffffffffffffffffffffffffffffffffffffffffffffffffffffff8381831617835250505050604051610b0a9190613219565b6000604051808303816000865af19150503d8060008114610b47576040519150601f19603f3d011682016040523d82523d6000602084013e610b4c565b606091505b5050905080610b90576040517f08c379a0000000000000000000000000000000000000000000000000000000008152600401610b87906134ca565b60405180910390fd5b505b5b8080610b9e906139eb565b9150506106d8565b505050505050565b600a60009054906101000a900473ffffffffffffffffffffffffffffffffffffffff1681565b60078054610be1906139b9565b80601f0160208091040260200160405190810160405280929190818152602001828054610c0d906139b9565b8015610c5a5780601f10610c2f57610100808354040283529160200191610c5a565b820191906000526020600020905b815481529060010190602001808311610c3d57829003601f168201915b505050505081565b60005b600080549050811015610e0d578173ffffffffffffffffffffffffffffffffffffffff1660008281548110610cc3577f4e487b7100000000000000000000000000000000000000000000000000000000600052603260045260246000fd5b9060005260206000200160009054906101000a900473ffffffffffffffffffffffffffffffffffffffff1673ffffffffffffffffffffffffffffffffffffffff161415610dfa576000808054905081548110610d48577f4e487b7100000000000000000000000000000000000000000000000000000000600052603260045260246000fd5b9060005260206000200160009054906101000a900473ffffffffffffffffffffffffffffffffffffffff1660008281548110610dad577f4e487b7100000000000000000000000000000000000000000000000000000000600052603260045260246000fd5b9060005260206000200160006101000a81548173ffffffffffffffffffffffffffffffffffffffff021916908373ffffffffffffffffffffffffffffffffffffffff160217905550610e0d565b8080610e05906139eb565b915050610c65565b506000805480610e46577f4e487b7100000000000000000000000000000000000000000000000000000000600052603160045260246000fd5b6001900381819060005260206000200160006101000a81549073ffffffffffffffffffffffffffffffffffffffff021916905590556000600460008373ffffffffffffffffffffffffffffffffffffffff1673ffffffffffffffffffffffffffffffffffffffff16815260200190815260200160002060006101000a81548160ff0219169083151502179055507f982d6fac85d22cbbe833f9fe4278a909ca0f3b24ecc8b1f10fe63736e3c7231381600660008473ffffffffffffffffffffffffffffffffffffffff1673ffffffffffffffffffffffffffffffffffffffff168152602001908152602001600020604051610f429291906132e7565b60405180910390a160006005600660008473ffffffffffffffffffffffffffffffffffffffff1673ffffffffffffffffffffffffffffffffffffffff168152602001908152602001600020604051610f9a9190613247565b908152602001604051809103902060006101000a81548173ffffffffffffffffffffffffffffffffffffffff021916908373ffffffffffffffffffffffffffffffffffffffff16021790555060405180602001604052806000815250600660008373ffffffffffffffffffffffffffffffffffffffff1673ffffffffffffffffffffffffffffffffffffffff1681526020019081526020016000209080519060200190611048929190612440565b5050565b600080600a60009054906101000a900473ffffffffffffffffffffffffffffffffffffffff1690508073ffffffffffffffffffffffffffffffffffffffff16630babba8688888888886040518663ffffffff1660e01b81526004016110b59594939291906133c8565b602060405180830381600087803b1580156110cf57600080fd5b505af11580156110e3573d6000803e3d6000fd5b505050506040513d601f19601f8201168201806040525081019061110791906126c2565b91505095945050505050565b600260009054906101000a900473ffffffffffffffffffffffffffffffffffffffff1673ffffffffffffffffffffffffffffffffffffffff163373ffffffffffffffffffffffffffffffffffffffff16146111a3576040517f08c379a000000000000000000000000000000000000000000000000000000000815260040161119a9061354a565b60405180910390fd5b8181600391906111b49291906124c6565b505050565b6060600180548060200260200160405190810160405280929190818152602001828054801561123d57602002820191906000526020600020905b8160009054906101000a900473ffffffffffffffffffffffffffffffffffffffff1673ffffffffffffffffffffffffffffffffffffffff16815260200190600101908083116111f3575b5050505050905090565b3373ffffffffffffffffffffffffffffffffffffffff168273ffffffffffffffffffffffffffffffffffffffff1614806112ce5750600260009054906101000a900473ffffffffffffffffffffffffffffffffffffffff1673ffffffffffffffffffffffffffffffffffffffff163373ffffffffffffffffffffffffffffffffffffffff16145b8061130457503273ffffffffffffffffffffffffffffffffffffffff168273ffffffffffffffffffffffffffffffffffffffff16145b611343576040517f08c379a000000000000000000000000000000000000000000000000000000000815260040161133a9061362a565b60405180910390fd5b816005826040516113549190613230565b908152602001604051809103902060006101000a81548173ffffffffffffffffffffffffffffffffffffffff021916908373ffffffffffffffffffffffffffffffffffffffff1602179055507ffdcc9059d3426f73949b49e5d977553aa298184439da800d66f48959d9cc76b0600660008473ffffffffffffffffffffffffffffffffffffffff1673ffffffffffffffffffffffffffffffffffffffff1681526020019081526020016000208260405161140f929190613433565b60405180910390a180600660008473ffffffffffffffffffffffffffffffffffffffff1673ffffffffffffffffffffffffffffffffffffffff168152602001908152602001600020908051906020019061146a929190612440565b505050565b6008805461147c906139b9565b80601f01602080910402602001604051908101604052809291908181526020018280546114a8906139b9565b80156114f55780601f106114ca576101008083540402835291602001916114f5565b820191906000526020600020905b8154815290600101906020018083116114d857829003601f168201915b505050505081565b600260009054906101000a900473ffffffffffffffffffffffffffffffffffffffff1673ffffffffffffffffffffffffffffffffffffffff163373ffffffffffffffffffffffffffffffffffffffff161461158d576040517f08c379a0000000000000000000000000000000000000000000000000000000008152600401611584906134ea565b60405180910390fd5b6000600b8190555060005b6000805490508110156116bf5760008082815481106115e0577f4e487b7100000000000000000000000000000000000000000000000000000000600052603260045260246000fd5b9060005260206000200160009054906101000a900473ffffffffffffffffffffffffffffffffffffffff1690506064600d60008373ffffffffffffffffffffffffffffffffffffffff1673ffffffffffffffffffffffffffffffffffffffff16815260200190815260200160002060006101000a81548160ff021916908360ff1602179055506000600c60008373ffffffffffffffffffffffffffffffffffffffff1673ffffffffffffffffffffffffffffffffffffffff168152602001908152602001600020819055505080806116b7906139eb565b915050611598565b50565b6005818051602081018201805184825260208301602085012081835280955050505050506000915054906101000a900473ffffffffffffffffffffffffffffffffffffffff1681565b6006602052806000526040600020600091509050805461172a906139b9565b80601f0160208091040260200160405190810160405280929190818152602001828054611756906139b9565b80156117a35780601f10611778576101008083540402835291602001916117a3565b820191906000526020600020905b81548152906001019060200180831161178657829003601f168201915b505050505081565b60046020528060005260406000206000915054906101000a900460ff1681565b6001819080600181540180825580915050600190039060005260206000200160009091909190916101000a81548173ffffffffffffffffffffffffffffffffffffffff021916908373ffffffffffffffffffffffffffffffffffffffff16021790555050565b606060008054806020026020016040519081016040528092919081815260200182805480156118b557602002820191906000526020600020905b8160009054906101000a900473ffffffffffffffffffffffffffffffffffffffff1673ffffffffffffffffffffffffffffffffffffffff168152602001906001019080831161186b575b5050505050905090565b600b5481565b600460003373ffffffffffffffffffffffffffffffffffffffff1673ffffffffffffffffffffffffffffffffffffffff16815260200190815260200160002060009054906101000a900460ff16806119665750600460008373ffffffffffffffffffffffffffffffffffffffff1673ffffffffffffffffffffffffffffffffffffffff16815260200190815260200160002060009054906101000a900460ff165b6119a5576040517f08c379a000000000000000000000000000000000000000000000000000000000815260040161199c906135aa565b60405180910390fd5b3373ffffffffffffffffffffffffffffffffffffffff168273ffffffffffffffffffffffffffffffffffffffff161415611a14576040517f08c379a0000000000000000000000000000000000000000000000000000000008152600401611a0b9061360a565b60405180910390fd5b8060ff16600d60003373ffffffffffffffffffffffffffffffffffffffff1673ffffffffffffffffffffffffffffffffffffffff16815260200190815260200160002060009054906101000a900460ff1660ff161015611aa9576040517f08c379a0000000000000000000000000000000000000000000000000000000008152600401611aa0906134aa565b60405180910390fd5b80600d60003373ffffffffffffffffffffffffffffffffffffffff1673ffffffffffffffffffffffffffffffffffffffff16815260200190815260200160002060008282829054906101000a900460ff16611b0491906138a6565b92506101000a81548160ff021916908360ff1602179055508060ff16600c60008473ffffffffffffffffffffffffffffffffffffffff1673ffffffffffffffffffffffffffffffffffffffff1681526020019081526020016000206000828254611b6e91906137c5565b925050819055508060ff16600b6000828254611b8a91906137c5565b925050819055505050565b611b9f8282611f31565b6064600d60008473ffffffffffffffffffffffffffffffffffffffff1673ffffffffffffffffffffffffffffffffffffffff16815260200190815260200160002060006101000a81548160ff021916908360ff1602179055505050565b600260009054906101000a900473ffffffffffffffffffffffffffffffffffffffff1673ffffffffffffffffffffffffffffffffffffffff163373ffffffffffffffffffffffffffffffffffffffff1614611c8c576040517f08c379a0000000000000000000000000000000000000000000000000000000008152600401611c839061350a565b60405180910390fd5b8273ffffffffffffffffffffffffffffffffffffffff1663b9e78f8f83836040518363ffffffff1660e01b8152600401611cc7929190613340565b600060405180830381600087803b158015611ce157600080fd5b505af1158015611cf5573d6000803e3d6000fd5b50505050505050565b600c6020528060005260406000206000915090505481565b60008080549050905090565b60098054611d2f906139b9565b80601f0160208091040260200160405190810160405280929190818152602001828054611d5b906139b9565b8015611da85780601f10611d7d57610100808354040283529160200191611da8565b820191906000526020600020905b815481529060010190602001808311611d8b57829003601f168201915b505050505081565b60038054611dbd906139b9565b80601f0160208091040260200160405190810160405280929190818152602001828054611de9906139b9565b8015611e365780601f10611e0b57610100808354040283529160200191611e36565b820191906000526020600020905b815481529060010190602001808311611e1957829003601f168201915b505050505081565b600d6020528060005260406000206000915054906101000a900460ff1681565b6000808211611ea2576040517f08c379a0000000000000000000000000000000000000000000000000000000008152600401611e999061352a565b60405180910390fd5b8183611eae919061381b565b905092915050565b600080831415611ec95760009050611f2b565b60008284611ed7919061384c565b9050828482611ee6919061381b565b14611f26576040517f08c379a0000000000000000000000000000000000000000000000000000000008152600401611f1d906135ca565b60405180910390fd5b809150505b92915050565b60011515600460003373ffffffffffffffffffffffffffffffffffffffff1673ffffffffffffffffffffffffffffffffffffffff16815260200190815260200160002060009054906101000a900460ff1615151480611fdd57503373ffffffffffffffffffffffffffffffffffffffff16600260009054906101000a900473ffffffffffffffffffffffffffffffffffffffff1673ffffffffffffffffffffffffffffffffffffffff16145b61201c576040517f08c379a00000000000000000000000000000000000000000000000000000000081526004016120139061364a565b60405180910390fd5b60001515600460008473ffffffffffffffffffffffffffffffffffffffff1673ffffffffffffffffffffffffffffffffffffffff16815260200190815260200160002060009054906101000a900460ff161515146120af576040517f08c379a00000000000000000000000000000000000000000000000000000000081526004016120a69061358a565b60405180910390fd5b600073ffffffffffffffffffffffffffffffffffffffff166005826040516120d79190613230565b908152602001604051809103902060009054906101000a900473ffffffffffffffffffffffffffffffffffffffff1673ffffffffffffffffffffffffffffffffffffffff161461215c576040517f08c379a00000000000000000000000000000000000000000000000000000000081526004016121539061356a565b60405180910390fd5b6000829080600181540180825580915050600190039060005260206000200160009091909190916101000a81548173ffffffffffffffffffffffffffffffffffffffff021916908373ffffffffffffffffffffffffffffffffffffffff16021790555080600660008473ffffffffffffffffffffffffffffffffffffffff1673ffffffffffffffffffffffffffffffffffffffff1681526020019081526020016000209080519060200190612212929190612440565b50816005826040516122249190613230565b908152602001604051809103902060006101000a81548173ffffffffffffffffffffffffffffffffffffffff021916908373ffffffffffffffffffffffffffffffffffffffff1602179055506001600460008473ffffffffffffffffffffffffffffffffffffffff1673ffffffffffffffffffffffffffffffffffffffff16815260200190815260200160002060006101000a81548160ff02191690831515021790555060008273ffffffffffffffffffffffffffffffffffffffff16306040516024016122f29190613273565b6040516020818303038152906040527facf36e53000000000000000000000000000000000000000000000000000000007bffffffffffffffffffffffffffffffffffffffffffffffffffffffff19166020820180517bffffffffffffffffffffffffffffffffffffffffffffffffffffffff838183161783525050505060405161237c9190613219565b6000604051808303816000865af19150503d80600081146123b9576040519150601f19603f3d011682016040523d82523d6000602084013e6123be565b606091505b5050905080612402576040517f08c379a00000000000000000000000000000000000000000000000000000000081526004016123f99061348a565b60405180910390fd5b7f7c803c00251fe8138e27cfa8286be8d98625e5f6476ca6ca594f682362b7112083836040516124339291906132b7565b60405180910390a1505050565b82805461244c906139b9565b90600052602060002090601f01602090048101928261246e57600085556124b5565b82601f1061248757805160ff19168380011785556124b5565b828001600101855582156124b5579182015b828111156124b4578251825591602001919060010190612499565b5b5090506124c2919061254c565b5090565b8280546124d2906139b9565b90600052602060002090601f0160209004810192826124f4576000855561253b565b82601f1061250d57803560ff191683800117855561253b565b8280016001018555821561253b579182015b8281111561253a57823582559160200191906001019061251f565b5b509050612548919061254c565b5090565b5b8082111561256557600081600090555060010161254d565b5090565b600061257c612577846136d1565b6136a0565b90508281526020810184848401111561259457600080fd5b61259f848285613977565b509392505050565b6000813590506125b681613b01565b92915050565b6000815190506125cb81613b01565b92915050565b6000815190506125e081613b18565b92915050565b60008083601f8401126125f857600080fd5b8235905067ffffffffffffffff81111561261157600080fd5b60208301915083600182028301111561262957600080fd5b9250929050565b600082601f83011261264157600080fd5b8135612651848260208601612569565b91505092915050565b60008135905061266981613b2f565b92915050565b60008151905061267e81613b2f565b92915050565b60008135905061269381613b46565b92915050565b6000602082840312156126ab57600080fd5b60006126b9848285016125a7565b91505092915050565b6000602082840312156126d457600080fd5b60006126e2848285016125bc565b91505092915050565b60008060006060848603121561270057600080fd5b600061270e868287016125a7565b935050602061271f868287016125a7565b925050604061273086828701612684565b9150509250925092565b6000806040838503121561274d57600080fd5b600061275b858286016125a7565b925050602083013567ffffffffffffffff81111561277857600080fd5b61278485828601612630565b9150509250929050565b600080604083850312156127a157600080fd5b60006127af858286016125a7565b92505060206127c08582860161265a565b9150509250929050565b600080604083850312156127dd57600080fd5b60006127eb858286016125a7565b92505060206127fc85828601612684565b9150509250929050565b60006020828403121561281857600080fd5b6000612826848285016125d1565b91505092915050565b6000806020838503121561284257600080fd5b600083013567ffffffffffffffff81111561285c57600080fd5b612868858286016125e6565b92509250509250929050565b60008060008060006060868803121561288c57600080fd5b600086013567ffffffffffffffff8111156128a657600080fd5b6128b2888289016125e6565b9550955050602086013567ffffffffffffffff8111156128d157600080fd5b6128dd888289016125e6565b935093505060406128f08882890161265a565b9150509295509295909350565b60006020828403121561290f57600080fd5b600082013567ffffffffffffffff81111561292957600080fd5b61293584828501612630565b91505092915050565b60006020828403121561295057600080fd5b600061295e8482850161266f565b91505092915050565b600061297383836129a6565b60208301905092915050565b600061298b83836129b5565b60208301905092915050565b6129a081613941565b82525050565b6129af816138ec565b82525050565b6129be816138da565b82525050565b6129cd816138da565b82525050565b60006129de82613736565b6129e8818561377c565b93506129f383613701565b8060005b83811015612a24578151612a0b888261297f565b9750612a1683613762565b9250506001810190506129f7565b5085935050505092915050565b6000612a3c82613741565b612a46818561378d565b9350612a5183613711565b8060005b83811015612a82578151612a698882612967565b9750612a748361376f565b925050600181019050612a55565b5085935050505092915050565b612a98816138fe565b82525050565b6000612aa98261374c565b612ab3818561379e565b9350612ac3818560208601613986565b80840191505092915050565b6000612adb83856137a9565b9350612ae8838584613977565b612af183613af0565b840190509392505050565b6000612b0782613757565b612b1181856137a9565b9350612b21818560208601613986565b612b2a81613af0565b840191505092915050565b6000612b4082613757565b612b4a81856137ba565b9350612b5a818560208601613986565b80840191505092915050565b60008154612b73816139b9565b612b7d81866137a9565b94506001821660008114612b985760018114612baa57612bdd565b60ff1983168652602086019350612bdd565b612bb385613721565b60005b83811015612bd557815481890152600182019150602081019050612bb6565b808801955050505b50505092915050565b60008154612bf3816139b9565b612bfd81866137ba565b94506001821660008114612c185760018114612c2957612c5c565b60ff19831686528186019350612c5c565b612c3285613721565b60005b83811015612c5457815481890152600182019150602081019050612c35565b838801955050505b50505092915050565b6000612c72600f836137a9565b91507f5472616e73666572206661696c656400000000000000000000000000000000006000830152602082019050919050565b6000612cb26017836137a9565b91507f4661696c656420746f2063726561746520706172656e740000000000000000006000830152602082019050919050565b6000612cf26021836137a9565b91507f4e6f7420656e6f75676820617070726563696174696f6e2072656d61696e696e60008301527f67000000000000000000000000000000000000000000000000000000000000006020830152604082019050919050565b6000612d586022836137a9565b91507f556e61626c6520746f2063616c6c20746865207265776172642066756e63746960008301527f6f6e0000000000000000000000000000000000000000000000000000000000006020830152604082019050919050565b6000612dbe6024836137a9565b91507f4f6e6c7920746865206c6561642063616e20726573657420617070726563696160008301527f74696f6e000000000000000000000000000000000000000000000000000000006020830152604082019050919050565b6000612e246021836137a9565b91507f4f6e6c79206c6561642063616e20706572666f726d207468697320616374696f60008301527f6e000000000000000000000000000000000000000000000000000000000000006020830152604082019050919050565b6000612e8a601a836137a9565b91507f536166654d6174683a206469766973696f6e206279207a65726f0000000000006000830152602082019050919050565b6000612eca601f836137a9565b91507f4f6e6c79206f776e65722063616e2073657420746865206d616e6966657374006000830152602082019050919050565b6000612f0a6015836137a9565b91507f4e616d6520697320616c72656164792074616b656e00000000000000000000006000830152602082019050919050565b6000612f4a6014836137a9565b91507f4d656d62657220616c72656164792061646465640000000000000000000000006000830152602082019050919050565b6000612f8a6022836137a9565b91507f53656e646572206f72205265636569766572206973206e6f742061206d656d6260008301527f65720000000000000000000000000000000000000000000000000000000000006020830152604082019050919050565b6000612ff06021836137a9565b91507f536166654d6174683a206d756c7469706c69636174696f6e206f766572666c6f60008301527f77000000000000000000000000000000000000000000000000000000000000006020830152604082019050919050565b60006130566021836137a9565b91507f4e6f7420656e6f75676820746f6b656e7320696e2074686520636f6e7472616360008301527f74000000000000000000000000000000000000000000000000000000000000006020830152604082019050919050565b60006130bc60008361379e565b9150600082019050919050565b60006130d66031836137a9565b91507f53656e6465722063616e6e6f7420617070726563696174652068696d73656c6660008301527f2e2e207468617427732073656c666973680000000000000000000000000000006020830152604082019050919050565b600061313c6032836137a9565b91507f4e616d65206368616e67652072657175657374206e6f742073656e742066726f60008301527f6d206d656d626572206e6f72206f776e657200000000000000000000000000006020830152604082019050919050565b60006131a26029836137a9565b91507f52657175657374207375626d69747465642062792061206e6f6e2d6d656d626560008301527f72206164647265737300000000000000000000000000000000000000000000006020830152604082019050919050565b6132048161392a565b82525050565b61321381613934565b82525050565b60006132258284612a9e565b915081905092915050565b600061323c8284612b35565b915081905092915050565b60006132538284612be6565b915081905092915050565b6000613269826130af565b9150819050919050565b600060208201905061328860008301846129c4565b92915050565b60006040820190506132a36000830185612997565b6132b060208301846131fb565b9392505050565b60006040820190506132cc60008301856129c4565b81810360208301526132de8184612afc565b90509392505050565b60006040820190506132fc60008301856129c4565b818103602083015261330e8184612b66565b90509392505050565b600060408201905061332c60008301856129c4565b61333960208301846131fb565b9392505050565b600060408201905061335560008301856129c4565b613362602083018461320a565b9392505050565b6000602082019050818103600083015261338381846129d3565b905092915050565b600060208201905081810360008301526133a58184612a31565b905092915050565b60006020820190506133c26000830184612a8f565b92915050565b600060608201905081810360008301526133e3818789612acf565b905081810360208301526133f8818587612acf565b905061340760408301846131fb565b9695505050505050565b6000602082019050818103600083015261342b8184612afc565b905092915050565b6000604082019050818103600083015261344d8185612b66565b905081810360208301526134618184612afc565b90509392505050565b6000602082019050818103600083015261348381612c65565b9050919050565b600060208201905081810360008301526134a381612ca5565b9050919050565b600060208201905081810360008301526134c381612ce5565b9050919050565b600060208201905081810360008301526134e381612d4b565b9050919050565b6000602082019050818103600083015261350381612db1565b9050919050565b6000602082019050818103600083015261352381612e17565b9050919050565b6000602082019050818103600083015261354381612e7d565b9050919050565b6000602082019050818103600083015261356381612ebd565b9050919050565b6000602082019050818103600083015261358381612efd565b9050919050565b600060208201905081810360008301526135a381612f3d565b9050919050565b600060208201905081810360008301526135c381612f7d565b9050919050565b600060208201905081810360008301526135e381612fe3565b9050919050565b6000602082019050818103600083015261360381613049565b9050919050565b60006020820190508181036000830152613623816130c9565b9050919050565b600060208201905081810360008301526136438161312f565b9050919050565b6000602082019050818103600083015261366381613195565b9050919050565b600060208201905061367f60008301846131fb565b92915050565b600060208201905061369a600083018461320a565b92915050565b6000604051905081810181811067ffffffffffffffff821117156136c7576136c6613ac1565b5b8060405250919050565b600067ffffffffffffffff8211156136ec576136eb613ac1565b5b601f19601f8301169050602081019050919050565b6000819050602082019050919050565b6000819050602082019050919050565b60008190508160005260206000209050919050565b600081519050919050565b600081519050919050565b600081519050919050565b600081519050919050565b6000602082019050919050565b6000602082019050919050565b600082825260208201905092915050565b600082825260208201905092915050565b600081905092915050565b600082825260208201905092915050565b600081905092915050565b60006137d08261392a565b91506137db8361392a565b9250827fffffffffffffffffffffffffffffffffffffffffffffffffffffffffffffffff038211156138105761380f613a34565b5b828201905092915050565b60006138268261392a565b91506138318361392a565b92508261384157613840613a63565b5b828204905092915050565b60006138578261392a565b91506138628361392a565b9250817fffffffffffffffffffffffffffffffffffffffffffffffffffffffffffffffff048311821515161561389b5761389a613a34565b5b828202905092915050565b60006138b182613934565b91506138bc83613934565b9250828210156138cf576138ce613a34565b5b828203905092915050565b60006138e58261390a565b9050919050565b60006138f78261390a565b9050919050565b60008115159050919050565b600073ffffffffffffffffffffffffffffffffffffffff82169050919050565b6000819050919050565b600060ff82169050919050565b600061394c82613953565b9050919050565b600061395e82613965565b9050919050565b60006139708261390a565b9050919050565b82818337600083830152505050565b60005b838110156139a4578082015181840152602081019050613989565b838111156139b3576000848401525b50505050565b600060028204905060018216806139d157607f821691505b602082108114156139e5576139e4613a92565b5b50919050565b60006139f68261392a565b91507fffffffffffffffffffffffffffffffffffffffffffffffffffffffffffffffff821415613a2957613a28613a34565b5b600182019050919050565b7f4e487b7100000000000000000000000000000000000000000000000000000000600052601160045260246000fd5b7f4e487b7100000000000000000000000000000000000000000000000000000000600052601260045260246000fd5b7f4e487b7100000000000000000000000000000000000000000000000000000000600052602260045260246000fd5b7f4e487b7100000000000000000000000000000000000000000000000000000000600052604160045260246000fd5b6000601f19601f8301169050919050565b613b0a816138da565b8114613b1557600080fd5b50565b613b21816138fe565b8114613b2c57600080fd5b50565b613b388161392a565b8114613b4357600080fd5b50565b613b4f81613934565b8114613b5a57600080fd5b5056fea2646970667358221220d228780412de56800a44d66a9f7429aa5ccf72b8901a72af1d304142569c294764736f6c63430008000033",
  "immutableReferences": {},
  "source": "// SPDX-License-Identifier: GPL-3.0\npragma solidity ^0.8;\n\n/*\n    Copyright 2020, Roberto Valenti\n\n    This program is free software: you can use it, redistribute it and/or modify\n    it under the terms of the Peer Production License as published by\n    the P2P Foundation.\n    \n    https://wiki.p2pfoundation.net/Peer_Production_License\n\n    This program is distributed in the hope that it will be useful,\n    but WITHOUT ANY WARRANTY; without even the implied warranty of\n    MERCHANTABILITY or FITNESS FOR A PARTICULAR PURPOSE.  See the\n    Peer Production License for more details.\n */\n\nimport \"../node_modules/openzeppelin-solidity/contracts/math/SafeMath.sol\";\nimport \"../node_modules/openzeppelin-solidity/contracts/token/ERC20/IERC20.sol\";\nimport \"./Holon.sol\";\n\ncontract Appreciative is Holon  {\n    using SafeMath for uint256;\n    //======================== Structures for tracking appreciation\n    uint256 public totalappreciation;               // max amount of appreciation in this holon\n    mapping (address => uint256) public appreciation; //appreciaton received by a member\n    mapping (address => uint8) public remainingappreciation; //appreciation left to give (max=100)\n\n    constructor (address _creator, string  memory _name)\n    {\n        name = _name;\n        creator = _creator;\n        flavor = \"Appreciative\";\n        totalappreciation = 0;\n    }\n\n      //=============================================================\n    //                      Appreciative Functions\n    //=============================================================\n    //  these function are called to signal appreciation to others\n\n    /// @dev Gives a percentage of appreciation to a specific member\n    /// @notice Only the holon members (not contributors) can call this function\n    /// @notice A member cannot send appreciation to himself\n    /// @notice Sender should have enough appreciation left to give\n    /// @param _memberaddress The address of the receiving member\n    /// @param _percentage The amount of the appreciation to give in percentage.\n\n    function appreciate(address _memberaddress, uint8 _percentage)\n        external\n    {\n        require (isMember[msg.sender] || isMember[_memberaddress], \"Sender or Receiver is not a member\");\n        require (_memberaddress != msg.sender, \"Sender cannot appreciate himself.. that's selfish\"); // sender can't vote for himself.\n        require (remainingappreciation[msg.sender] >= _percentage, \"Not enough appreciation remaining\");\n        remainingappreciation[msg.sender] -= _percentage;\n        appreciation[_memberaddress] += _percentage;\n        totalappreciation += _percentage;\n    }\n\n    /// @dev Gives a percentage of appreciation to a specific member\n    /// @notice Only the holon members can call this function\n    /// @notice A member cannot send appreciation to himself\n    /// @notice Sender should have enough appreciation left to give in parent\n    /// @param _parent The address of the receiving member\n    /// @param _sibling The address of the receiving member\n    /// @param _percentage The amount of the appreciation to give in percentage.\n\n    function appreciateSibling(address _parent, address _sibling, uint8 _percentage)\n        external\n    {\n        require (msg.sender == owner,\"Only lead can perform this action\");\n        Appreciative(payable(_parent)).appreciate(_sibling,_percentage);\n    }\n\n   /// @dev Resets appreciation of the caller\n    /// @notice This is the only way to change already assigned appreciation\n    function resetAppreciation()\n        external\n    {\n        require(msg.sender == owner, \"Only the lead can reset appreciation\");\n        totalappreciation = 0;\n         for (uint256 i = 0; i < _members.length; i++) {\n             address _memberaddress = _members[i];\n             remainingappreciation[_memberaddress] = 100;\n             appreciation[_memberaddress] = 0;\n         }\n    }\n\n    function addMember(address  _memberaddress, string memory _membername) \n         public override\n    {\n        super.addMember(_memberaddress,_membername);\n        remainingappreciation[_memberaddress] = 100;\n    }\n\n    function reward(address _tokenaddress, uint256 _tokenamount)\n        public\n        payable\n        override\n    {\n        bool etherreward;\n        IERC20 token;\n\n        if (msg.value  > 0 && _tokenaddress == address(0)) {\n            _tokenamount = msg.value;\n            etherreward = true;\n        }\n         else {\n            //Load ERC20 token information\n            token = IERC20(_tokenaddress);\n            require (token.balanceOf(address(this)) >= _tokenamount, \"Not enough tokens in the contract\");\n        }\n        \n        uint256  amount;\n\n        for (uint256 i = 0; i < _members.length; i++) {\n            if (totalappreciation > 0 ) // if any appreciation was shared\n                amount = appreciation[_members[i]].mul( _tokenamount.div(totalappreciation)); //multiply given appreciation with unit reward\n            else\n                amount = _tokenamount.div(_members.length); //else use blanket unit reward value.\n\n            if (amount > 0 ){\n                if (etherreward){\n                    (bool success, ) = _members[i].call{value: amount}(\"\");\n                    require(success, \"Transfer failed\");\n                }\n                else {\n                    token.transfer(_members[i],amount);\n                    (bool success,) = _members[i].call(\n                    abi.encodeWithSignature(\"reward(address,uint256)\", _tokenaddress, amount)\n                    );\n                    require(success, \"Unable to call the reward function\" );\n                }\n                // MemberRewarded(_members[i], \"ERC20\", amount); TODO\n            }\n        }\n       // emit HolonRewarded(address(this), \"ERC20\", _tokenamount);TODO\n    }\n   \n}",
  "sourcePath": "/Users/roberto/Projects/Hack-Along/holons/contracts/Appreciative.sol",
  "compiler": {
    "name": "solc",
    "version": "0.8.0+commit.c7dfd78e.Emscripten.clang"
  },
  "schemaVersion": "3.4.10",
  "updatedAt": "2023-04-11T09:42:27.792Z",
  "devdoc": {
    "kind": "dev",
    "methods": {
      "appreciate(address,uint8)": {
        "details": "Gives a percentage of appreciation to a specific member",
        "params": {
          "_memberaddress": "The address of the receiving member",
          "_percentage": "The amount of the appreciation to give in percentage."
        }
      },
      "appreciateSibling(address,address,uint8)": {
        "details": "Gives a percentage of appreciation to a specific member",
        "params": {
          "_parent": "The address of the receiving member",
          "_percentage": "The amount of the appreciation to give in percentage.",
          "_sibling": "The address of the receiving member"
        }
      },
      "changeName(address,string)": {
        "details": "Changes the name of the member",
        "params": {
          "_address": "The address of the member",
          "_name": "The new name of the member"
        }
      },
      "getSize()": {
        "details": "Retrieves the size of the membrane",
        "returns": {
          "_0": "number of members in the membrane"
        }
      },
      "listMembers()": {
        "details": "Retrieves the index of  members in the membrane",
        "returns": {
          "_0": "list of the address of the members"
        }
      },
      "listParents()": {
        "details": "Retrieves the list of parents of the membrane",
        "returns": {
          "_0": "the address of the parents of the membrane"
        }
      },
      "resetAppreciation()": {
        "details": "Resets appreciation of the caller"
      },
      "setManifest(string)": {
        "details": "Sets the hash of the latest IPFS manifest for this membrane",
        "params": {
          "_IPFSHash": "The hash of the IPFS manifest"
        }
      }
    },
    "version": 1
  },
  "userdoc": {
    "kind": "user",
    "methods": {
      "appreciate(address,uint8)": {
        "notice": "Only the holon members (not contributors) can call this functionA member cannot send appreciation to himselfSender should have enough appreciation left to give"
      },
      "appreciateSibling(address,address,uint8)": {
        "notice": "Only the holon members can call this functionA member cannot send appreciation to himselfSender should have enough appreciation left to give in parent"
      },
      "changeName(address,string)": {
        "notice": "only the lead can call this function"
      },
      "newHolon(string,string,uint256)": {
        "notice": "Constructor to create an holon  created the Holon contract, the factory needs to be deployed first"
      },
      "resetAppreciation()": {
        "notice": "This is the only way to change already assigned appreciation"
      },
      "setManifest(string)": {
        "notice": "Only the holon lead can change this!"
      }
    },
    "version": 1
  }
}