{
  "contractName": "Holon",
  "abi": [
    {
      "anonymous": false,
      "inputs": [
        {
          "indexed": false,
          "internalType": "address",
          "name": "member",
          "type": "address"
        },
        {
          "indexed": false,
          "internalType": "string",
          "name": "name",
          "type": "string"
        }
      ],
      "name": "AddedMember",
      "type": "event"
    },
    {
      "anonymous": false,
      "inputs": [
        {
          "indexed": false,
          "internalType": "string",
          "name": "namefrom",
          "type": "string"
        },
        {
          "indexed": false,
          "internalType": "string",
          "name": "nameto",
          "type": "string"
        }
      ],
      "name": "ChangedName",
      "type": "event"
    },
    {
      "anonymous": false,
      "inputs": [
        {
          "indexed": false,
          "internalType": "address",
          "name": "holon",
          "type": "address"
        },
        {
          "indexed": false,
          "internalType": "string",
          "name": "token",
          "type": "string"
        },
        {
          "indexed": false,
          "internalType": "uint256",
          "name": "amount",
          "type": "uint256"
        }
      ],
      "name": "HolonRewarded",
      "type": "event"
    },
    {
      "anonymous": false,
      "inputs": [
        {
          "indexed": false,
          "internalType": "address",
          "name": "member",
          "type": "address"
        },
        {
          "indexed": false,
          "internalType": "string",
          "name": "token",
          "type": "string"
        },
        {
          "indexed": false,
          "internalType": "uint256",
          "name": "amount",
          "type": "uint256"
        }
      ],
      "name": "MemberRewarded",
      "type": "event"
    },
    {
      "anonymous": false,
      "inputs": [
        {
          "indexed": false,
          "internalType": "address",
          "name": "member",
          "type": "address"
        },
        {
          "indexed": false,
          "internalType": "string",
          "name": "name",
          "type": "string"
        }
      ],
      "name": "RemovedMember",
      "type": "event"
    },
    {
      "stateMutability": "payable",
      "type": "fallback"
    },
    {
      "inputs": [
        {
          "internalType": "address",
          "name": "_memberaddress",
          "type": "address"
        },
        {
          "internalType": "string",
          "name": "_membername",
          "type": "string"
        }
      ],
      "name": "addMember",
      "outputs": [],
      "stateMutability": "nonpayable",
      "type": "function"
    },
    {
      "inputs": [
        {
          "internalType": "address",
          "name": "_parentaddress",
          "type": "address"
        }
      ],
      "name": "addParent",
      "outputs": [],
      "stateMutability": "nonpayable",
      "type": "function"
    },
    {
      "inputs": [
        {
          "internalType": "address",
          "name": "_address",
          "type": "address"
        },
        {
          "internalType": "string",
          "name": "_name",
          "type": "string"
        }
      ],
      "name": "changeName",
      "outputs": [],
      "stateMutability": "nonpayable",
      "type": "function"
    },
    {
      "inputs": [],
      "name": "creator",
      "outputs": [
        {
          "internalType": "address",
          "name": "",
          "type": "address"
        }
      ],
      "stateMutability": "view",
      "type": "function"
    },
    {
      "inputs": [],
      "name": "flavor",
      "outputs": [
        {
          "internalType": "string",
          "name": "",
          "type": "string"
        }
      ],
      "stateMutability": "view",
      "type": "function"
    },
    {
      "inputs": [],
      "name": "getSize",
      "outputs": [
        {
          "internalType": "uint256",
          "name": "",
          "type": "uint256"
        }
      ],
      "stateMutability": "view",
      "type": "function"
    },
    {
      "inputs": [
        {
          "internalType": "address",
          "name": "",
          "type": "address"
        }
      ],
      "name": "isMember",
      "outputs": [
        {
          "internalType": "bool",
          "name": "",
          "type": "bool"
        }
      ],
      "stateMutability": "view",
      "type": "function"
    },
    {
      "inputs": [],
      "name": "listMembers",
      "outputs": [
        {
          "internalType": "address payable[]",
          "name": "",
          "type": "address[]"
        }
      ],
      "stateMutability": "view",
      "type": "function"
    },
    {
      "inputs": [],
      "name": "listParents",
      "outputs": [
        {
          "internalType": "address[]",
          "name": "",
          "type": "address[]"
        }
      ],
      "stateMutability": "view",
      "type": "function"
    },
    {
      "inputs": [],
      "name": "manifest",
      "outputs": [
        {
          "internalType": "string",
          "name": "",
          "type": "string"
        }
      ],
      "stateMutability": "view",
      "type": "function"
    },
    {
      "inputs": [],
      "name": "name",
      "outputs": [
        {
          "internalType": "string",
          "name": "",
          "type": "string"
        }
      ],
      "stateMutability": "view",
      "type": "function"
    },
    {
      "inputs": [
        {
          "internalType": "address",
          "name": "_memberaddress",
          "type": "address"
        }
      ],
      "name": "removeMember",
      "outputs": [],
      "stateMutability": "nonpayable",
      "type": "function"
    },
    {
      "inputs": [
        {
          "internalType": "string",
          "name": "_IPFSHash",
          "type": "string"
        }
      ],
      "name": "setManifest",
      "outputs": [],
      "stateMutability": "nonpayable",
      "type": "function"
    },
    {
      "inputs": [
        {
          "internalType": "string",
          "name": "",
          "type": "string"
        }
      ],
      "name": "toAddress",
      "outputs": [
        {
          "internalType": "address",
          "name": "",
          "type": "address"
        }
      ],
      "stateMutability": "view",
      "type": "function"
    },
    {
      "inputs": [
        {
          "internalType": "address",
          "name": "",
          "type": "address"
        }
      ],
      "name": "toName",
      "outputs": [
        {
          "internalType": "string",
          "name": "",
          "type": "string"
        }
      ],
      "stateMutability": "view",
      "type": "function"
    },
    {
      "inputs": [],
      "name": "version",
      "outputs": [
        {
          "internalType": "string",
          "name": "",
          "type": "string"
        }
      ],
      "stateMutability": "view",
      "type": "function"
    },
    {
      "stateMutability": "payable",
      "type": "receive"
    },
    {
      "inputs": [
        {
          "internalType": "string",
          "name": "_flavor",
          "type": "string"
        },
        {
          "internalType": "string",
          "name": "_name",
          "type": "string"
        },
        {
          "internalType": "uint256",
          "name": "_parameter",
          "type": "uint256"
        }
      ],
      "name": "newHolon",
      "outputs": [
        {
          "internalType": "address",
          "name": "",
          "type": "address"
        }
      ],
      "stateMutability": "nonpayable",
      "type": "function"
    },
    {
      "inputs": [
        {
          "internalType": "address",
          "name": "_tokenaddress",
          "type": "address"
        },
        {
          "internalType": "uint256",
          "name": "_tokenamount",
          "type": "uint256"
        }
      ],
      "name": "reward",
      "outputs": [],
      "stateMutability": "payable",
      "type": "function"
    }
  ],
  "bytecode": "0x608060405234801561001057600080fd5b5032600260006101000a81548173ffffffffffffffffffffffffffffffffffffffff021916908373ffffffffffffffffffffffffffffffffffffffff160217905550612fcf806100616000396000f3fe60806040526004361061010d5760003560e01c80637e4115ba11610095578063b6afd2ca11610064578063b6afd2ca1461038c578063c127c247146103b7578063de8fa431146103e0578063f59e4f651461040b578063f5baf0d7146104365761011f565b80637e4115ba146102ac57806381bc3f8c146102e9578063a230c52414610326578063acf36e53146103635761011f565b806321670f22116100dc57806321670f22146101e857806329b84d09146102045780633113a2ae1461022d57806345ca25ed1461025857806354fd4d50146102815761011f565b806302d05d3f1461012c57806306fdde03146101575780630b1ca49a146101825780630babba86146101ab5761011f565b3661011f5761011d600034610461565b005b61012a600034610461565b005b34801561013857600080fd5b50610141610b44565b60405161014e919061283f565b60405180910390f35b34801561016357600080fd5b5061016c610b6a565b6040516101799190612a30565b60405180910390f35b34801561018e57600080fd5b506101a960048036038101906101a49190611f63565b610bf8565b005b3480156101b757600080fd5b506101d260048036038101906101cd91906120b3565b610fe2565b6040516101df919061283f565b60405180910390f35b61020260048036038101906101fd9190612009565b610461565b005b34801561021057600080fd5b5061022b6004803603810190610226919061206e565b6110a9565b005b34801561023957600080fd5b5061024261114f565b60405161024f9190612988565b60405180910390f35b34801561026457600080fd5b5061027f600480360381019061027a9190611fb5565b6111dd565b005b34801561028d57600080fd5b50610296611405565b6040516102a39190612a30565b60405180910390f35b3480156102b857600080fd5b506102d360048036038101906102ce919061213c565b611493565b6040516102e0919061283f565b60405180910390f35b3480156102f557600080fd5b50610310600480360381019061030b9190611f63565b6114dc565b60405161031d9190612a30565b60405180910390f35b34801561033257600080fd5b5061034d60048036038101906103489190611f63565b61157c565b60405161035a91906129cc565b60405180910390f35b34801561036f57600080fd5b5061038a60048036038101906103859190611f63565b61159c565b005b34801561039857600080fd5b506103a1611602565b6040516103ae91906129aa565b60405180910390f35b3480156103c357600080fd5b506103de60048036038101906103d99190611fb5565b611690565b005b3480156103ec57600080fd5b506103f5611b9f565b6040516104029190612bc9565b60405180910390f35b34801561041757600080fd5b50610420611bab565b60405161042d9190612a30565b60405180910390f35b34801561044257600080fd5b5061044b611c39565b6040516104589190612a30565b60405180910390f35b600080803411801561049f5750600073ffffffffffffffffffffffffffffffffffffffff168473ffffffffffffffffffffffffffffffffffffffff16145b156104b0573492506001915061057f565b839050828173ffffffffffffffffffffffffffffffffffffffff166370a08231306040518263ffffffff1660e01b81526004016104ed919061283f565b60206040518083038186803b15801561050557600080fd5b505afa158015610519573d6000803e3d6000fd5b505050506040513d601f19601f8201168201806040525081019061053d919061217d565b101561057e576040517f08c379a000000000000000000000000000000000000000000000000000000000815260040161057590612b69565b60405180910390fd5b5b600061059960008054905085611cc790919063ffffffff16565b905060005b600080549050811015610a8b576000821115610a785783156106cf5760008082815481106105f5577f4e487b7100000000000000000000000000000000000000000000000000000000600052603260045260246000fd5b9060005260206000200160009054906101000a900473ffffffffffffffffffffffffffffffffffffffff1673ffffffffffffffffffffffffffffffffffffffff16836040516106439061282a565b60006040518083038185875af1925050503d8060008114610680576040519150601f19603f3d011682016040523d82523d6000602084013e610685565b606091505b50509050806106c9576040517f08c379a00000000000000000000000000000000000000000000000000000000081526004016106c090612a89565b60405180910390fd5b50610962565b8273ffffffffffffffffffffffffffffffffffffffff1663a9059cbb60008381548110610725577f4e487b7100000000000000000000000000000000000000000000000000000000600052603260045260246000fd5b9060005260206000200160009054906101000a900473ffffffffffffffffffffffffffffffffffffffff16846040518363ffffffff1660e01b815260040161076e929190612898565b602060405180830381600087803b15801561078857600080fd5b505af115801561079c573d6000803e3d6000fd5b505050506040513d601f19601f820116820180604052508101906107c09190612045565b5060008082815481106107fc577f4e487b7100000000000000000000000000000000000000000000000000000000600052603260045260246000fd5b9060005260206000200160009054906101000a900473ffffffffffffffffffffffffffffffffffffffff1673ffffffffffffffffffffffffffffffffffffffff16878460405160240161085092919061295f565b6040516020818303038152906040527f21670f22000000000000000000000000000000000000000000000000000000007bffffffffffffffffffffffffffffffffffffffffffffffffffffffff19166020820180517bffffffffffffffffffffffffffffffffffffffffffffffffffffffff83818316178352505050506040516108da91906127e5565b6000604051808303816000865af19150503d8060008114610917576040519150601f19603f3d011682016040523d82523d6000602084013e61091c565b606091505b5050905080610960576040517f08c379a000000000000000000000000000000000000000000000000000000000815260040161095790612ac9565b60405180910390fd5b505b7f04481a311a9d6c25d5003a3df0e3a0b58e5647e088a39de363764e28532a78b7600082815481106109bd577f4e487b7100000000000000000000000000000000000000000000000000000000600052603260045260246000fd5b9060005260206000200160009054906101000a900473ffffffffffffffffffffffffffffffffffffffff1685610a28576040518060400160405280600581526020017f4552433230000000000000000000000000000000000000000000000000000000815250610a5f565b6040518060400160405280600581526020017f45544845520000000000000000000000000000000000000000000000000000008152505b84604051610a6f9392919061285a565b60405180910390a15b8080610a8390612e3e565b91505061059e565b507f5e1d21dcfda4f76cd32994c09b67a7cd04e48267cd319846e7af93569afff7a93084610aee576040518060400160405280600581526020017f4552433230000000000000000000000000000000000000000000000000000000815250610b25565b6040518060400160405280600581526020017f45544845520000000000000000000000000000000000000000000000000000008152505b86604051610b35939291906128f1565b60405180910390a15050505050565b600a60009054906101000a900473ffffffffffffffffffffffffffffffffffffffff1681565b60078054610b7790612e0c565b80601f0160208091040260200160405190810160405280929190818152602001828054610ba390612e0c565b8015610bf05780601f10610bc557610100808354040283529160200191610bf0565b820191906000526020600020905b815481529060010190602001808311610bd357829003601f168201915b505050505081565b60005b600080549050811015610da3578173ffffffffffffffffffffffffffffffffffffffff1660008281548110610c59577f4e487b7100000000000000000000000000000000000000000000000000000000600052603260045260246000fd5b9060005260206000200160009054906101000a900473ffffffffffffffffffffffffffffffffffffffff1673ffffffffffffffffffffffffffffffffffffffff161415610d90576000808054905081548110610cde577f4e487b7100000000000000000000000000000000000000000000000000000000600052603260045260246000fd5b9060005260206000200160009054906101000a900473ffffffffffffffffffffffffffffffffffffffff1660008281548110610d43577f4e487b7100000000000000000000000000000000000000000000000000000000600052603260045260246000fd5b9060005260206000200160006101000a81548173ffffffffffffffffffffffffffffffffffffffff021916908373ffffffffffffffffffffffffffffffffffffffff160217905550610da3565b8080610d9b90612e3e565b915050610bfb565b506000805480610ddc577f4e487b7100000000000000000000000000000000000000000000000000000000600052603160045260246000fd5b6001900381819060005260206000200160006101000a81549073ffffffffffffffffffffffffffffffffffffffff021916905590556000600460008373ffffffffffffffffffffffffffffffffffffffff1673ffffffffffffffffffffffffffffffffffffffff16815260200190815260200160002060006101000a81548160ff0219169083151502179055507f982d6fac85d22cbbe833f9fe4278a909ca0f3b24ecc8b1f10fe63736e3c7231381600660008473ffffffffffffffffffffffffffffffffffffffff1673ffffffffffffffffffffffffffffffffffffffff168152602001908152602001600020604051610ed892919061292f565b60405180910390a160006005600660008473ffffffffffffffffffffffffffffffffffffffff1673ffffffffffffffffffffffffffffffffffffffff168152602001908152602001600020604051610f309190612813565b908152602001604051809103902060006101000a81548173ffffffffffffffffffffffffffffffffffffffff021916908373ffffffffffffffffffffffffffffffffffffffff16021790555060405180602001604052806000815250600660008373ffffffffffffffffffffffffffffffffffffffff1673ffffffffffffffffffffffffffffffffffffffff1681526020019081526020016000209080519060200190610fde929190611d1f565b5050565b600080600a60009054906101000a900473ffffffffffffffffffffffffffffffffffffffff1690508073ffffffffffffffffffffffffffffffffffffffff16630babba8688888888886040518663ffffffff1660e01b815260040161104b9594939291906129e7565b602060405180830381600087803b15801561106557600080fd5b505af1158015611079573d6000803e3d6000fd5b505050506040513d601f19601f8201168201806040525081019061109d9190611f8c565b91505095945050505050565b600260009054906101000a900473ffffffffffffffffffffffffffffffffffffffff1673ffffffffffffffffffffffffffffffffffffffff163373ffffffffffffffffffffffffffffffffffffffff1614611139576040517f08c379a000000000000000000000000000000000000000000000000000000000815260040161113090612b09565b60405180910390fd5b81816003919061114a929190611da5565b505050565b606060018054806020026020016040519081016040528092919081815260200182805480156111d357602002820191906000526020600020905b8160009054906101000a900473ffffffffffffffffffffffffffffffffffffffff1673ffffffffffffffffffffffffffffffffffffffff1681526020019060010190808311611189575b5050505050905090565b3373ffffffffffffffffffffffffffffffffffffffff168273ffffffffffffffffffffffffffffffffffffffff1614806112645750600260009054906101000a900473ffffffffffffffffffffffffffffffffffffffff1673ffffffffffffffffffffffffffffffffffffffff163373ffffffffffffffffffffffffffffffffffffffff16145b8061129a57503273ffffffffffffffffffffffffffffffffffffffff168273ffffffffffffffffffffffffffffffffffffffff16145b6112d9576040517f08c379a00000000000000000000000000000000000000000000000000000000081526004016112d090612b89565b60405180910390fd5b816005826040516112ea91906127fc565b908152602001604051809103902060006101000a81548173ffffffffffffffffffffffffffffffffffffffff021916908373ffffffffffffffffffffffffffffffffffffffff1602179055507ffdcc9059d3426f73949b49e5d977553aa298184439da800d66f48959d9cc76b0600660008473ffffffffffffffffffffffffffffffffffffffff1673ffffffffffffffffffffffffffffffffffffffff168152602001908152602001600020826040516113a5929190612a52565b60405180910390a180600660008473ffffffffffffffffffffffffffffffffffffffff1673ffffffffffffffffffffffffffffffffffffffff1681526020019081526020016000209080519060200190611400929190611d1f565b505050565b6008805461141290612e0c565b80601f016020809104026020016040519081016040528092919081815260200182805461143e90612e0c565b801561148b5780601f106114605761010080835404028352916020019161148b565b820191906000526020600020905b81548152906001019060200180831161146e57829003601f168201915b505050505081565b6005818051602081018201805184825260208301602085012081835280955050505050506000915054906101000a900473ffffffffffffffffffffffffffffffffffffffff1681565b600660205280600052604060002060009150905080546114fb90612e0c565b80601f016020809104026020016040519081016040528092919081815260200182805461152790612e0c565b80156115745780601f1061154957610100808354040283529160200191611574565b820191906000526020600020905b81548152906001019060200180831161155757829003601f168201915b505050505081565b60046020528060005260406000206000915054906101000a900460ff1681565b6001819080600181540180825580915050600190039060005260206000200160009091909190916101000a81548173ffffffffffffffffffffffffffffffffffffffff021916908373ffffffffffffffffffffffffffffffffffffffff16021790555050565b6060600080548060200260200160405190810160405280929190818152602001828054801561168657602002820191906000526020600020905b8160009054906101000a900473ffffffffffffffffffffffffffffffffffffffff1673ffffffffffffffffffffffffffffffffffffffff168152602001906001019080831161163c575b5050505050905090565b60011515600460003373ffffffffffffffffffffffffffffffffffffffff1673ffffffffffffffffffffffffffffffffffffffff16815260200190815260200160002060009054906101000a900460ff161515148061173c57503373ffffffffffffffffffffffffffffffffffffffff16600260009054906101000a900473ffffffffffffffffffffffffffffffffffffffff1673ffffffffffffffffffffffffffffffffffffffff16145b61177b576040517f08c379a000000000000000000000000000000000000000000000000000000000815260040161177290612ba9565b60405180910390fd5b60001515600460008473ffffffffffffffffffffffffffffffffffffffff1673ffffffffffffffffffffffffffffffffffffffff16815260200190815260200160002060009054906101000a900460ff1615151461180e576040517f08c379a000000000000000000000000000000000000000000000000000000000815260040161180590612b49565b60405180910390fd5b600073ffffffffffffffffffffffffffffffffffffffff1660058260405161183691906127fc565b908152602001604051809103902060009054906101000a900473ffffffffffffffffffffffffffffffffffffffff1673ffffffffffffffffffffffffffffffffffffffff16146118bb576040517f08c379a00000000000000000000000000000000000000000000000000000000081526004016118b290612b29565b60405180910390fd5b6000829080600181540180825580915050600190039060005260206000200160009091909190916101000a81548173ffffffffffffffffffffffffffffffffffffffff021916908373ffffffffffffffffffffffffffffffffffffffff16021790555080600660008473ffffffffffffffffffffffffffffffffffffffff1673ffffffffffffffffffffffffffffffffffffffff1681526020019081526020016000209080519060200190611971929190611d1f565b508160058260405161198391906127fc565b908152602001604051809103902060006101000a81548173ffffffffffffffffffffffffffffffffffffffff021916908373ffffffffffffffffffffffffffffffffffffffff1602179055506001600460008473ffffffffffffffffffffffffffffffffffffffff1673ffffffffffffffffffffffffffffffffffffffff16815260200190815260200160002060006101000a81548160ff02191690831515021790555060008273ffffffffffffffffffffffffffffffffffffffff1630604051602401611a51919061283f565b6040516020818303038152906040527facf36e53000000000000000000000000000000000000000000000000000000007bffffffffffffffffffffffffffffffffffffffffffffffffffffffff19166020820180517bffffffffffffffffffffffffffffffffffffffffffffffffffffffff8381831617835250505050604051611adb91906127e5565b6000604051808303816000865af19150503d8060008114611b18576040519150601f19603f3d011682016040523d82523d6000602084013e611b1d565b606091505b5050905080611b61576040517f08c379a0000000000000000000000000000000000000000000000000000000008152600401611b5890612aa9565b60405180910390fd5b7f7c803c00251fe8138e27cfa8286be8d98625e5f6476ca6ca594f682362b711208383604051611b929291906128c1565b60405180910390a1505050565b60008080549050905090565b60098054611bb890612e0c565b80601f0160208091040260200160405190810160405280929190818152602001828054611be490612e0c565b8015611c315780601f10611c0657610100808354040283529160200191611c31565b820191906000526020600020905b815481529060010190602001808311611c1457829003601f168201915b505050505081565b60038054611c4690612e0c565b80601f0160208091040260200160405190810160405280929190818152602001828054611c7290612e0c565b8015611cbf5780601f10611c9457610100808354040283529160200191611cbf565b820191906000526020600020905b815481529060010190602001808311611ca257829003601f168201915b505050505081565b6000808211611d0b576040517f08c379a0000000000000000000000000000000000000000000000000000000008152600401611d0290612ae9565b60405180910390fd5b8183611d179190612d09565b905092915050565b828054611d2b90612e0c565b90600052602060002090601f016020900481019282611d4d5760008555611d94565b82601f10611d6657805160ff1916838001178555611d94565b82800160010185558215611d94579182015b82811115611d93578251825591602001919060010190611d78565b5b509050611da19190611e2b565b5090565b828054611db190612e0c565b90600052602060002090601f016020900481019282611dd35760008555611e1a565b82601f10611dec57803560ff1916838001178555611e1a565b82800160010185558215611e1a579182015b82811115611e19578235825591602001919060010190611dfe565b5b509050611e279190611e2b565b5090565b5b80821115611e44576000816000905550600101611e2c565b5090565b6000611e5b611e5684612c15565b612be4565b905082815260208101848484011115611e7357600080fd5b611e7e848285612dca565b509392505050565b600081359050611e9581612f54565b92915050565b600081519050611eaa81612f54565b92915050565b600081519050611ebf81612f6b565b92915050565b60008083601f840112611ed757600080fd5b8235905067ffffffffffffffff811115611ef057600080fd5b602083019150836001820283011115611f0857600080fd5b9250929050565b600082601f830112611f2057600080fd5b8135611f30848260208601611e48565b91505092915050565b600081359050611f4881612f82565b92915050565b600081519050611f5d81612f82565b92915050565b600060208284031215611f7557600080fd5b6000611f8384828501611e86565b91505092915050565b600060208284031215611f9e57600080fd5b6000611fac84828501611e9b565b91505092915050565b60008060408385031215611fc857600080fd5b6000611fd685828601611e86565b925050602083013567ffffffffffffffff811115611ff357600080fd5b611fff85828601611f0f565b9150509250929050565b6000806040838503121561201c57600080fd5b600061202a85828601611e86565b925050602061203b85828601611f39565b9150509250929050565b60006020828403121561205757600080fd5b600061206584828501611eb0565b91505092915050565b6000806020838503121561208157600080fd5b600083013567ffffffffffffffff81111561209b57600080fd5b6120a785828601611ec5565b92509250509250929050565b6000806000806000606086880312156120cb57600080fd5b600086013567ffffffffffffffff8111156120e557600080fd5b6120f188828901611ec5565b9550955050602086013567ffffffffffffffff81111561211057600080fd5b61211c88828901611ec5565b9350935050604061212f88828901611f39565b9150509295509295909350565b60006020828403121561214e57600080fd5b600082013567ffffffffffffffff81111561216857600080fd5b61217484828501611f0f565b91505092915050565b60006020828403121561218f57600080fd5b600061219d84828501611f4e565b91505092915050565b60006121b283836121e5565b60208301905092915050565b60006121ca83836121f4565b60208301905092915050565b6121df81612d94565b82525050565b6121ee81612d4c565b82525050565b6121fd81612d3a565b82525050565b61220c81612d3a565b82525050565b600061221d82612c7a565b6122278185612cc0565b935061223283612c45565b8060005b8381101561226357815161224a88826121be565b975061225583612ca6565b925050600181019050612236565b5085935050505092915050565b600061227b82612c85565b6122858185612cd1565b935061229083612c55565b8060005b838110156122c15781516122a888826121a6565b97506122b383612cb3565b925050600181019050612294565b5085935050505092915050565b6122d781612d5e565b82525050565b60006122e882612c90565b6122f28185612ce2565b9350612302818560208601612dd9565b80840191505092915050565b600061231a8385612ced565b9350612327838584612dca565b61233083612f43565b840190509392505050565b600061234682612c9b565b6123508185612ced565b9350612360818560208601612dd9565b61236981612f43565b840191505092915050565b600061237f82612c9b565b6123898185612cfe565b9350612399818560208601612dd9565b80840191505092915050565b600081546123b281612e0c565b6123bc8186612ced565b945060018216600081146123d757600181146123e95761241c565b60ff198316865260208601935061241c565b6123f285612c65565b60005b83811015612414578154818901526001820191506020810190506123f5565b808801955050505b50505092915050565b6000815461243281612e0c565b61243c8186612cfe565b9450600182166000811461245757600181146124685761249b565b60ff1983168652818601935061249b565b61247185612c65565b60005b8381101561249357815481890152600182019150602081019050612474565b838801955050505b50505092915050565b60006124b1600f83612ced565b91507f5472616e73666572206661696c656400000000000000000000000000000000006000830152602082019050919050565b60006124f1601783612ced565b91507f4661696c656420746f2063726561746520706172656e740000000000000000006000830152602082019050919050565b6000612531602283612ced565b91507f556e61626c6520746f2063616c6c20746865207265776172642066756e63746960008301527f6f6e0000000000000000000000000000000000000000000000000000000000006020830152604082019050919050565b6000612597601a83612ced565b91507f536166654d6174683a206469766973696f6e206279207a65726f0000000000006000830152602082019050919050565b60006125d7601f83612ced565b91507f4f6e6c79206f776e65722063616e2073657420746865206d616e6966657374006000830152602082019050919050565b6000612617601583612ced565b91507f4e616d6520697320616c72656164792074616b656e00000000000000000000006000830152602082019050919050565b6000612657601483612ced565b91507f4d656d62657220616c72656164792061646465640000000000000000000000006000830152602082019050919050565b6000612697602183612ced565b91507f4e6f7420656e6f75676820746f6b656e7320696e2074686520636f6e7472616360008301527f74000000000000000000000000000000000000000000000000000000000000006020830152604082019050919050565b60006126fd600083612ce2565b9150600082019050919050565b6000612717603283612ced565b91507f4e616d65206368616e67652072657175657374206e6f742073656e742066726f60008301527f6d206d656d626572206e6f72206f776e657200000000000000000000000000006020830152604082019050919050565b600061277d602983612ced565b91507f52657175657374207375626d69747465642062792061206e6f6e2d6d656d626560008301527f72206164647265737300000000000000000000000000000000000000000000006020830152604082019050919050565b6127df81612d8a565b82525050565b60006127f182846122dd565b915081905092915050565b60006128088284612374565b915081905092915050565b600061281f8284612425565b915081905092915050565b6000612835826126f0565b9150819050919050565b60006020820190506128546000830184612203565b92915050565b600060608201905061286f60008301866121d6565b8181036020830152612881818561233b565b905061289060408301846127d6565b949350505050565b60006040820190506128ad60008301856121d6565b6128ba60208301846127d6565b9392505050565b60006040820190506128d66000830185612203565b81810360208301526128e8818461233b565b90509392505050565b60006060820190506129066000830186612203565b8181036020830152612918818561233b565b905061292760408301846127d6565b949350505050565b60006040820190506129446000830185612203565b818103602083015261295681846123a5565b90509392505050565b60006040820190506129746000830185612203565b61298160208301846127d6565b9392505050565b600060208201905081810360008301526129a28184612212565b905092915050565b600060208201905081810360008301526129c48184612270565b905092915050565b60006020820190506129e160008301846122ce565b92915050565b60006060820190508181036000830152612a0281878961230e565b90508181036020830152612a1781858761230e565b9050612a2660408301846127d6565b9695505050505050565b60006020820190508181036000830152612a4a818461233b565b905092915050565b60006040820190508181036000830152612a6c81856123a5565b90508181036020830152612a80818461233b565b90509392505050565b60006020820190508181036000830152612aa2816124a4565b9050919050565b60006020820190508181036000830152612ac2816124e4565b9050919050565b60006020820190508181036000830152612ae281612524565b9050919050565b60006020820190508181036000830152612b028161258a565b9050919050565b60006020820190508181036000830152612b22816125ca565b9050919050565b60006020820190508181036000830152612b428161260a565b9050919050565b60006020820190508181036000830152612b628161264a565b9050919050565b60006020820190508181036000830152612b828161268a565b9050919050565b60006020820190508181036000830152612ba28161270a565b9050919050565b60006020820190508181036000830152612bc281612770565b9050919050565b6000602082019050612bde60008301846127d6565b92915050565b6000604051905081810181811067ffffffffffffffff82111715612c0b57612c0a612f14565b5b8060405250919050565b600067ffffffffffffffff821115612c3057612c2f612f14565b5b601f19601f8301169050602081019050919050565b6000819050602082019050919050565b6000819050602082019050919050565b60008190508160005260206000209050919050565b600081519050919050565b600081519050919050565b600081519050919050565b600081519050919050565b6000602082019050919050565b6000602082019050919050565b600082825260208201905092915050565b600082825260208201905092915050565b600081905092915050565b600082825260208201905092915050565b600081905092915050565b6000612d1482612d8a565b9150612d1f83612d8a565b925082612d2f57612d2e612eb6565b5b828204905092915050565b6000612d4582612d6a565b9050919050565b6000612d5782612d6a565b9050919050565b60008115159050919050565b600073ffffffffffffffffffffffffffffffffffffffff82169050919050565b6000819050919050565b6000612d9f82612da6565b9050919050565b6000612db182612db8565b9050919050565b6000612dc382612d6a565b9050919050565b82818337600083830152505050565b60005b83811015612df7578082015181840152602081019050612ddc565b83811115612e06576000848401525b50505050565b60006002820490506001821680612e2457607f821691505b60208210811415612e3857612e37612ee5565b5b50919050565b6000612e4982612d8a565b91507fffffffffffffffffffffffffffffffffffffffffffffffffffffffffffffffff821415612e7c57612e7b612e87565b5b600182019050919050565b7f4e487b7100000000000000000000000000000000000000000000000000000000600052601160045260246000fd5b7f4e487b7100000000000000000000000000000000000000000000000000000000600052601260045260246000fd5b7f4e487b7100000000000000000000000000000000000000000000000000000000600052602260045260246000fd5b7f4e487b7100000000000000000000000000000000000000000000000000000000600052604160045260246000fd5b6000601f19601f8301169050919050565b612f5d81612d3a565b8114612f6857600080fd5b50565b612f7481612d5e565b8114612f7f57600080fd5b50565b612f8b81612d8a565b8114612f9657600080fd5b5056fea2646970667358221220fd7645006c2d5cc9ba23b3bcc09a18c1170a905c48eb79cd3ca768f36b02d95d64736f6c63430008000033",
  "immutableReferences": {},
  "source": "// SPDX-License-Identifier: GPL-3.0\npragma solidity ^0.8;\n\n/*\n    Copyright 2020, Roberto Valenti\n\n    This program is free software: you can use it, redistribute it and/or modify\n    it under the terms of the Peer Production License as published by\n    the P2P Foundation.\n    \n    https://wiki.p2pfoundation.net/Peer_Production_License\n\n    This program is distributed in the hope that it will be useful,\n    but WITHOUT ANY WARRANTY; without even the implied warranty of\n    MERCHANTABILITY or FITNESS FOR A PARTICULAR PURPOSE.  See the\n    Peer Production License for more details.\n */\n\nimport \"../node_modules/openzeppelin-solidity/contracts/math/SafeMath.sol\";\nimport \"../node_modules/openzeppelin-solidity/contracts/token/ERC20/IERC20.sol\";\nimport \"./IHolonFactory.sol\";\nimport \"./Membrane.sol\";\n\ncontract Holon is Membrane{\n    using SafeMath for uint256;\n\n     //======================== Public holon variables\n    string public name;                      //The name of the holon\n    string public version;                   //Version of the holon contract\n    string public flavor;                    //Type of the holon\n    address public creator;                  //Link to the holonic parent\n\n    //======================== Events\n    event HolonRewarded (address holon, string token, uint256 amount);\n    event MemberRewarded (address member,string token, uint256 amount);\n\n    /// @notice Constructor to create an holon\n    ///  created the Holon contract, the factory needs to be deployed first\n\n\n    // /// @dev Splits the ERC20 token amount sent to the holon according to the appreciation\n    // /// @notice If appreciation is not shared, it splits it equally across each member (calling BlanketReward)\n    //  function reward(address _tokenaddress, uint256 _tokenamount)\n    //     public\n    //     payable\n    //     override\n    // {\n    //     bool etherreward;\n    //     IERC20 token;\n\n    //     if (msg.value  > 0 && _tokenaddress == address(0)) {\n    //         _tokenamount = msg.value;\n    //         etherreward = true;\n    //     }\n    //      else {\n    //         //Load ERC20 token information\n    //         token = IERC20(_tokenaddress);\n    //         require (token.balanceOf(address(this)) >= _tokenamount, \"Not enough tokens in the contract\");\n    //     }\n        \n    //     uint256  amount;\n\n    //     for (uint256 i = 0; i < _members.length; i++) {\n    //         if (totalappreciation > 0 ) // if any appreciation was shared\n    //             amount = appreciation[_members[i]].mul( _tokenamount.div(totalappreciation)); //multiply given appreciation with unit reward\n    //         else\n    //             amount = _tokenamount.div(_members.length); //else use blanket unit reward value.\n\n    //         if (amount > 0 ){\n    //             if (etherreward){\n    //                 (bool success, ) = _members[i].call{value: amount}(\"\");\n    //                 require(success, \"Transfer failed\");\n    //             }\n    //             else {\n    //                 token.transfer(_members[i],amount);\n    //                 (bool success,) = _members[i].call(\n    //                 abi.encodeWithSignature(\"reward(address,uint256)\", _tokenaddress, amount)\n    //                 );\n    //                 require(success, \"Unable to call the reward function\" );\n    //             }\n    //             MemberRewarded(_members[i], \"ERC20\", amount);\n    //         }\n    //     }\n    //     emit HolonRewarded(address(this), \"ERC20\", _tokenamount);\n    // }\n\n    //=============================================================\n    //                      Holon Creation, Fork and Merge Functions\n    //=============================================================\n    // these function will be used by the holon lead to mantain the holon members\n    function newHolon(string calldata _flavor, string calldata _name, uint _parameter) external returns (address){\n        IHolonFactory factory = IHolonFactory(creator);\n        return factory.newHolon(_flavor, _name, _parameter);\n        \n        // (bool success, bytes memory data ) = creator.call(\n        //             abi.encodeWithSignature(\"newHolon(string, uint)\", _name, _parameter)\n        //             );\n        // emit Response(success, data);\n        // require (success, \"Holon creation failed\");\n    }\n\n    // function joinHolon(address _memberaddress, string memory _membername)\n    //     public\n    // {\n    //     require(isMember[_memberaddress] == false, \"Member was already added\");\n    //     require(toAddress[_membername] == address(0), \"Name is already taken\");\n    //     _members.push(address(uint160(_memberaddress)));\n    //     toAddress[_membername] = _memberaddress;\n    //     toName[_memberaddress] = _membername;\n    //     //isContributor[_memberaddress] = true;\n\n    //     //emit Joined(_memberaddress, name);\n    // }\n\n    //This function should be called to respect the holonic peer production license.\n    // function spork(string memory _holonname){\n    //    Holon newholon =fork(\"newname\");\n    //    newholon.spoon(address(this))\n    //}\n\n    //This function should be called to respect the holonic peer production license.\n    // function fork(string memory _holonname)\n    //      public\n    // {\n    //      Holon newholon = Holon(factory.newHolon(_holonname));\n    //      newholon.addMember(address(this),\"Initiator\"); //Link back to origin\n    //      this.joinHolon(address(newholon),_holonname); // Link to fork\n    // }\n\n      receive() \n        external \n        payable \n    {\n        reward(address(0),msg.value);\n    }\n   \n    fallback()\n        external\n        payable\n    {\n        reward(address(0),msg.value);\n    }\n\n\n    function reward(address _tokenaddress, uint256 _tokenamount)\n        public\n        payable\n        virtual\n    {\n        bool etherreward = false;\n        IERC20 token;\n\n        if (msg.value  > 0 && _tokenaddress == address(0)) {\n            _tokenamount = msg.value;\n            etherreward = true;\n        }\n         else {\n            //Load ERC20 token information\n            token = IERC20(_tokenaddress);\n            require (token.balanceOf(address(this)) >= _tokenamount, \"Not enough tokens in the contract\");\n        }\n        \n        uint256 amount = _tokenamount.div(_members.length); // use blanket unit reward value.\n\n        for (uint256 i = 0; i < _members.length; i++) {\n            if (amount > 0 ){\n                if (etherreward){\n                    (bool success, ) = _members[i].call{value: amount}(\"\");\n                    require(success, \"Transfer failed\");\n                }\n                else {\n                    token.transfer(_members[i],amount);\n                    (bool success,) = _members[i].call(\n                    abi.encodeWithSignature(\"reward(address,uint256)\", _tokenaddress, amount)\n                    );\n                    require(success, \"Unable to call the reward function\" );\n                }\n                MemberRewarded(_members[i],etherreward? \"ETHER\":\"ERC20\", amount);\n            }\n        }\n        emit HolonRewarded(address(this), etherreward? \"ETHER\":\"ERC20\", _tokenamount);\n    }\n}",
  "sourcePath": "/Users/roberto/Projects/Hack-Along/holons/contracts/Holon.sol",
  "compiler": {
    "name": "solc",
    "version": "0.8.0+commit.c7dfd78e.Emscripten.clang"
  },
  "schemaVersion": "3.4.13",
  "updatedAt": "2023-04-11T09:38:53.157Z",
  "devdoc": {
    "kind": "dev",
    "methods": {
      "changeName(address,string)": {
        "details": "Changes the name of the member",
        "params": {
          "_address": "The address of the member",
          "_name": "The new name of the member"
        }
      },
      "getSize()": {
        "details": "Retrieves the size of the membrane",
        "returns": {
          "_0": "number of members in the membrane"
        }
      },
      "listMembers()": {
        "details": "Retrieves the index of  members in the membrane",
        "returns": {
          "_0": "list of the address of the members"
        }
      },
      "listParents()": {
        "details": "Retrieves the list of parents of the membrane",
        "returns": {
          "_0": "the address of the parents of the membrane"
        }
      },
      "setManifest(string)": {
        "details": "Sets the hash of the latest IPFS manifest for this membrane",
        "params": {
          "_IPFSHash": "The hash of the IPFS manifest"
        }
      }
    },
    "version": 1
  },
  "userdoc": {
    "kind": "user",
    "methods": {
      "changeName(address,string)": {
        "notice": "only the lead can call this function"
      },
      "newHolon(string,string,uint256)": {
        "notice": "Constructor to create an holon  created the Holon contract, the factory needs to be deployed first"
      },
      "setManifest(string)": {
        "notice": "Only the holon lead can change this!"
      }
    },
    "version": 1
  }
}