{
  "contractName": "Holons",
  "abi": [
    {
      "anonymous": false,
      "inputs": [
        {
          "indexed": true,
          "internalType": "address",
          "name": "flavor",
          "type": "address"
        },
        {
          "indexed": false,
          "internalType": "string",
          "name": "name",
          "type": "string"
        }
      ],
      "name": "NewFlavor",
      "type": "event"
    },
    {
      "anonymous": false,
      "inputs": [
        {
          "indexed": false,
          "internalType": "string",
          "name": "name",
          "type": "string"
        },
        {
          "indexed": false,
          "internalType": "address",
          "name": "addr",
          "type": "address"
        }
      ],
      "name": "NewHolon",
      "type": "event"
    },
    {
      "inputs": [
        {
          "internalType": "uint256",
          "name": "",
          "type": "uint256"
        }
      ],
      "name": "knownflavors",
      "outputs": [
        {
          "internalType": "string",
          "name": "",
          "type": "string"
        }
      ],
      "stateMutability": "view",
      "type": "function",
      "constant": true
    },
    {
      "inputs": [
        {
          "internalType": "string",
          "name": "",
          "type": "string"
        }
      ],
      "name": "toAddress",
      "outputs": [
        {
          "internalType": "address",
          "name": "",
          "type": "address"
        }
      ],
      "stateMutability": "view",
      "type": "function",
      "constant": true
    },
    {
      "inputs": [
        {
          "internalType": "string",
          "name": "_flavorname",
          "type": "string"
        },
        {
          "internalType": "address",
          "name": "_flavoraddress",
          "type": "address"
        }
      ],
      "name": "newFlavor",
      "outputs": [],
      "stateMutability": "nonpayable",
      "type": "function"
    },
    {
      "inputs": [
        {
          "internalType": "string",
          "name": "_flavor",
          "type": "string"
        },
        {
          "internalType": "string",
          "name": "_name",
          "type": "string"
        },
        {
          "internalType": "uint256",
          "name": "_parameter",
          "type": "uint256"
        }
      ],
      "name": "newHolon",
      "outputs": [
        {
          "internalType": "address",
          "name": "",
          "type": "address"
        }
      ],
      "stateMutability": "nonpayable",
      "type": "function"
    },
    {
      "inputs": [
        {
          "internalType": "string",
          "name": "_name",
          "type": "string"
        }
      ],
      "name": "getFlavorAddress",
      "outputs": [
        {
          "internalType": "address",
          "name": "",
          "type": "address"
        }
      ],
      "stateMutability": "view",
      "type": "function",
      "constant": true
    },
    {
      "inputs": [],
      "name": "listFlavors",
      "outputs": [
        {
          "internalType": "string[]",
          "name": "",
          "type": "string[]"
        }
      ],
      "stateMutability": "view",
      "type": "function",
      "constant": true
    },
    {
      "inputs": [],
      "name": "listHolons",
      "outputs": [
        {
          "internalType": "address[]",
          "name": "",
          "type": "address[]"
        }
      ],
      "stateMutability": "view",
      "type": "function",
      "constant": true
    },
    {
      "inputs": [
        {
          "internalType": "address",
          "name": "_address",
          "type": "address"
        }
      ],
      "name": "listHolonsOf",
      "outputs": [
        {
          "internalType": "address[]",
          "name": "",
          "type": "address[]"
        }
      ],
      "stateMutability": "view",
      "type": "function",
      "constant": true
    }
  ],
  "bytecode": "0x608060405234801561001057600080fd5b5061155a806100206000396000f3fe608060405234801561001057600080fd5b50600436106100885760003560e01c80637e4115ba1161005b5780637e4115ba1461013b578063dfee57171461016b578063e5c233741461019b578063f690335a146101b957610088565b80630babba861461008d5780631bef6cd4146100bd5780632c0e7860146100db5780637b72401f1461010b575b600080fd5b6100a760048036038101906100a29190610cdb565b6101d5565b6040516100b49190611128565b60405180910390f35b6100c5610462565b6040516100d29190611165565b60405180910390f35b6100f560048036038101906100f09190610c9a565b61053b565b6040516101029190611128565b60405180910390f35b61012560048036038101906101209190610d5a565b610630565b60405161013291906111ab565b60405180910390f35b61015560048036038101906101509190610c9a565b6106dc565b6040516101629190611128565b60405180910390f35b61018560048036038101906101809190610bf0565b610725565b6040516101929190611143565b60405180910390f35b6101a36107f1565b6040516101b09190611143565b60405180910390f35b6101d360048036038101906101ce9190610c42565b6108bb565b005b60008073ffffffffffffffffffffffffffffffffffffffff166002856040516101fe9190611111565b908152602001604051809103902060009054906101000a900473ffffffffffffffffffffffffffffffffffffffff1673ffffffffffffffffffffffffffffffffffffffff161415610284576040517f08c379a000000000000000000000000000000000000000000000000000000000815260040161027b9061122d565b60405180910390fd5b60006002856040516102969190611111565b908152602001604051809103902060009054906101000a900473ffffffffffffffffffffffffffffffffffffffff1690506000808273ffffffffffffffffffffffffffffffffffffffff1686866040516024016102f49291906111fd565b6040516020818303038152906040527fe43cb270000000000000000000000000000000000000000000000000000000007bffffffffffffffffffffffffffffffffffffffffffffffffffffffff19166020820180517bffffffffffffffffffffffffffffffffffffffffffffffffffffffff838183161783525050505060405161037e91906110e1565b600060405180830381855af49150503d80600081146103b9576040519150601f19603f3d011682016040523d82523d6000602084013e6103be565b606091505b509150915081610403576040517f08c379a00000000000000000000000000000000000000000000000000000000081526004016103fa9061124d565b60405180910390fd5b6000818060200190518101906104199190610c19565b90507f10d047031611691941b661f2160741619b4030812eb79997f4b3734ed5605a43878260405161044c9291906111cd565b60405180910390a1809450505050509392505050565b60606003805480602002602001604051908101604052809291908181526020016000905b828210156105325783829060005260206000200180546104a59061143e565b80601f01602080910402602001604051908101604052809291908181526020018280546104d19061143e565b801561051e5780601f106104f35761010080835404028352916020019161051e565b820191906000526020600020905b81548152906001019060200180831161050157829003601f168201915b505050505081526020019060010190610486565b50505050905090565b60008073ffffffffffffffffffffffffffffffffffffffff166002836040516105649190611111565b908152602001604051809103902060009054906101000a900473ffffffffffffffffffffffffffffffffffffffff1673ffffffffffffffffffffffffffffffffffffffff1614156105ea576040517f08c379a00000000000000000000000000000000000000000000000000000000081526004016105e19061122d565b60405180910390fd5b6002826040516105fa9190611111565b908152602001604051809103902060009054906101000a900473ffffffffffffffffffffffffffffffffffffffff169050919050565b6003818154811061064057600080fd5b90600052602060002001600091509050805461065b9061143e565b80601f01602080910402602001604051908101604052809291908181526020018280546106879061143e565b80156106d45780601f106106a9576101008083540402835291602001916106d4565b820191906000526020600020905b8154815290600101906020018083116106b757829003601f168201915b505050505081565b6001818051602081018201805184825260208301602085012081835280955050505050506000915054906101000a900473ffffffffffffffffffffffffffffffffffffffff1681565b60606000808373ffffffffffffffffffffffffffffffffffffffff1673ffffffffffffffffffffffffffffffffffffffff1681526020019081526020016000208054806020026020016040519081016040528092919081815260200182805480156107e557602002820191906000526020600020905b8160009054906101000a900473ffffffffffffffffffffffffffffffffffffffff1673ffffffffffffffffffffffffffffffffffffffff168152602001906001019080831161079b575b50505050509050919050565b60606000808073ffffffffffffffffffffffffffffffffffffffff1673ffffffffffffffffffffffffffffffffffffffff1681526020019081526020016000208054806020026020016040519081016040528092919081815260200182805480156108b157602002820191906000526020600020905b8160009054906101000a900473ffffffffffffffffffffffffffffffffffffffff1673ffffffffffffffffffffffffffffffffffffffff1681526020019060010190808311610867575b5050505050905090565b600073ffffffffffffffffffffffffffffffffffffffff16600284846040516108e59291906110f8565b908152602001604051809103902060009054906101000a900473ffffffffffffffffffffffffffffffffffffffff1673ffffffffffffffffffffffffffffffffffffffff161461096a576040517f08c379a00000000000000000000000000000000000000000000000000000000081526004016109619061126d565b60405180910390fd5b806002848460405161097d9291906110f8565b908152602001604051809103902060006101000a81548173ffffffffffffffffffffffffffffffffffffffff021916908373ffffffffffffffffffffffffffffffffffffffff1602179055506003838390918060018154018082558091505060019003906000526020600020016000909192909192909192909192509190610a06929190610a5c565b508073ffffffffffffffffffffffffffffffffffffffff167f6718dfd55f2c8a35b1a954f6fcc62a3d28a6f996fa4a157974ad6f42a0e67b518484604051610a4f929190611187565b60405180910390a2505050565b828054610a689061143e565b90600052602060002090601f016020900481019282610a8a5760008555610ad1565b82601f10610aa357803560ff1916838001178555610ad1565b82800160010185558215610ad1579182015b82811115610ad0578235825591602001919060010190610ab5565b5b509050610ade9190610ae2565b5090565b5b80821115610afb576000816000905550600101610ae3565b5090565b6000610b12610b0d846112be565b61128d565b905082815260208101848484011115610b2a57600080fd5b610b358482856113fc565b509392505050565b600081359050610b4c816114df565b92915050565b600081519050610b61816114f6565b92915050565b60008083601f840112610b7957600080fd5b8235905067ffffffffffffffff811115610b9257600080fd5b602083019150836001820283011115610baa57600080fd5b9250929050565b600082601f830112610bc257600080fd5b8135610bd2848260208601610aff565b91505092915050565b600081359050610bea8161150d565b92915050565b600060208284031215610c0257600080fd5b6000610c1084828501610b3d565b91505092915050565b600060208284031215610c2b57600080fd5b6000610c3984828501610b52565b91505092915050565b600080600060408486031215610c5757600080fd5b600084013567ffffffffffffffff811115610c7157600080fd5b610c7d86828701610b67565b93509350506020610c9086828701610b3d565b9150509250925092565b600060208284031215610cac57600080fd5b600082013567ffffffffffffffff811115610cc657600080fd5b610cd284828501610bb1565b91505092915050565b600080600060608486031215610cf057600080fd5b600084013567ffffffffffffffff811115610d0a57600080fd5b610d1686828701610bb1565b935050602084013567ffffffffffffffff811115610d3357600080fd5b610d3f86828701610bb1565b9250506040610d5086828701610bdb565b9150509250925092565b600060208284031215610d6c57600080fd5b6000610d7a84828501610bdb565b91505092915050565b6000610d8f8383610daf565b60208301905092915050565b6000610da78383610f23565b905092915050565b610db8816113ae565b82525050565b610dc7816113ae565b82525050565b6000610dd88261130e565b610de28185611354565b9350610ded836112ee565b8060005b83811015610e1e578151610e058882610d83565b9750610e108361133a565b925050600181019050610df1565b5085935050505092915050565b6000610e3682611319565b610e408185611365565b935083602082028501610e52856112fe565b8060005b85811015610e8e5784840389528151610e6f8582610d9b565b9450610e7a83611347565b925060208a01995050600181019050610e56565b50829750879550505050505092915050565b6000610eab82611324565b610eb58185611376565b9350610ec581856020860161140b565b80840191505092915050565b6000610edd8385611392565b9350610eea8385846113fc565b610ef3836114ce565b840190509392505050565b6000610f0a83856113a3565b9350610f178385846113fc565b82840190509392505050565b6000610f2e8261132f565b610f388185611381565b9350610f4881856020860161140b565b610f51816114ce565b840191505092915050565b6000610f678261132f565b610f718185611392565b9350610f8181856020860161140b565b610f8a816114ce565b840191505092915050565b6000610fa08261132f565b610faa81856113a3565b9350610fba81856020860161140b565b80840191505092915050565b6000610fd3602483611392565b91507f466c61766f7220776974682074686973206e616d6520646f6573206e6f74206560008301527f78697374000000000000000000000000000000000000000000000000000000006020830152604082019050919050565b6000611039601583611392565b91507f486f6c6f6e206372656174696f6e206661696c656400000000000000000000006000830152602082019050919050565b6000611079602483611392565b91507f466c61766f7220776974682074686973206e616d6520616c726561647920657860008301527f69737473000000000000000000000000000000000000000000000000000000006020830152604082019050919050565b6110db816113f2565b82525050565b60006110ed8284610ea0565b915081905092915050565b6000611105828486610efe565b91508190509392505050565b600061111d8284610f95565b915081905092915050565b600060208201905061113d6000830184610dbe565b92915050565b6000602082019050818103600083015261115d8184610dcd565b905092915050565b6000602082019050818103600083015261117f8184610e2b565b905092915050565b600060208201905081810360008301526111a2818486610ed1565b90509392505050565b600060208201905081810360008301526111c58184610f5c565b905092915050565b600060408201905081810360008301526111e78185610f5c565b90506111f66020830184610dbe565b9392505050565b600060408201905081810360008301526112178185610f5c565b905061122660208301846110d2565b9392505050565b6000602082019050818103600083015261124681610fc6565b9050919050565b600060208201905081810360008301526112668161102c565b9050919050565b600060208201905081810360008301526112868161106c565b9050919050565b6000604051905081810181811067ffffffffffffffff821117156112b4576112b361149f565b5b8060405250919050565b600067ffffffffffffffff8211156112d9576112d861149f565b5b601f19601f8301169050602081019050919050565b6000819050602082019050919050565b6000819050602082019050919050565b600081519050919050565b600081519050919050565b600081519050919050565b600081519050919050565b6000602082019050919050565b6000602082019050919050565b600082825260208201905092915050565b600082825260208201905092915050565b600081905092915050565b600082825260208201905092915050565b600082825260208201905092915050565b600081905092915050565b60006113b9826113d2565b9050919050565b60006113cb826113d2565b9050919050565b600073ffffffffffffffffffffffffffffffffffffffff82169050919050565b6000819050919050565b82818337600083830152505050565b60005b8381101561142957808201518184015260208101905061140e565b83811115611438576000848401525b50505050565b6000600282049050600182168061145657607f821691505b6020821081141561146a57611469611470565b5b50919050565b7f4e487b7100000000000000000000000000000000000000000000000000000000600052602260045260246000fd5b7f4e487b7100000000000000000000000000000000000000000000000000000000600052604160045260246000fd5b6000601f19601f8301169050919050565b6114e8816113ae565b81146114f357600080fd5b50565b6114ff816113c0565b811461150a57600080fd5b50565b611516816113f2565b811461152157600080fd5b5056fea26469706673582212204cfd347c65cdde308f93ac578a17f658339da6891f3d3f3f8d3c3295f993fce564736f6c63430008000033",
  "immutableReferences": {},
  "source": "// SPDX-License-Identifier: GPL-3.0\npragma solidity ^0.8;\n\n/*\n    Copyright 2020, Roberto Valenti\n\n    This program is free software: you can use it, redistribute it and/or modify\n    it under the terms of the Peer Production License as published by\n    the P2P Foundation.\n    \n    https://wiki.p2pfoundation.net/Peer_Production_License\n\n    This program is distributed in the hope that it will be useful,\n    but WITHOUT ANY WARRANTY; without even the implied warranty of\n    MERCHANTABILITY or FITNESS FOR A PARTICULAR PURPOSE.  See the\n    Peer Production License for more details.\n */\n\n\ncontract Holons {\n\n    mapping (address => address[]) private holons;\n    mapping (string => address) public toAddress;   //NOTE: Remove on deploy\n    mapping (string => address) private flavors;\n    string[] public knownflavors;\n\n\n    event NewHolon (string name, address addr);\n    event NewFlavor(address indexed flavor, string name);\n    \n    function newFlavor(string calldata _flavorname, address _flavoraddress) public {\n        require(flavors[_flavorname] == address(0), \"Flavor with this name already exists\");\n        flavors[_flavorname] = _flavoraddress;\n        knownflavors.push(_flavorname);\n        emit NewFlavor( _flavoraddress,  _flavorname);\n    }\n    \n    function newHolon(string memory _flavor, string memory _name, uint _parameter) public returns (address) {\n        require(flavors[_flavor] != address(0), \"Flavor with this name does not exist\");\n        address flavorAddress = flavors[_flavor];\n\n        (bool success, bytes memory result) = flavorAddress.delegatecall(\n            abi.encodeWithSignature(\"newHolon(string,uint256)\", _name, _parameter)\n        );\n        \n        require(success, \"Holon creation failed\");\n        address holonAddress = abi.decode(result, (address));\n        emit NewHolon( _name, holonAddress);\n        \n        return holonAddress;\n    }\n    \n    function getFlavorAddress(string memory _name) public view returns (address) {\n        require(flavors[_name] != address(0), \"Flavor with this name does not exist\");\n        return flavors[_name];\n    }\n\n    // returns the list of flavors\n    function listFlavors() public view returns (string [] memory ) {\n        return knownflavors;\n    }\n\n        /// @dev Lists every holons ever created\n    /// @return an array containing the address of every holon ever created.\n\n    function listHolons() external view returns (address[] memory ){\n        return holons[address(0)];\n    }\n\n    /// @dev Lists every holons created by a given address\n    /// @param _address address;\n    /// @return an array containing the address of every holon ever created.\n\n    function listHolonsOf(address _address) external view returns (address[] memory){\n        return holons[_address];\n    }\n}\n",
  "sourcePath": "/Users/roberto/Projects/Hack-Along/holons/contracts/Holons.sol",
  "compiler": {
    "name": "solc",
    "version": "0.8.0+commit.c7dfd78e.Emscripten.clang"
  },
  "schemaVersion": "3.4.13",
  "updatedAt": "2023-04-11T12:10:25.170Z",
  "networkType": "ethereum",
  "devdoc": {
    "kind": "dev",
    "methods": {
      "listHolons()": {
        "details": "Lists every holons ever created",
        "returns": {
          "_0": "an array containing the address of every holon ever created."
        }
      },
      "listHolonsOf(address)": {
        "details": "Lists every holons created by a given address",
        "params": {
          "_address": "address;"
        },
        "returns": {
          "_0": "an array containing the address of every holon ever created."
        }
      }
    },
    "version": 1
  },
  "userdoc": {
    "kind": "user",
    "methods": {},
    "version": 1
  }
}