{
  "contractName": "Zoned",
  "abi": [
    {
      "inputs": [
        {
          "internalType": "address",
          "name": "_creator",
          "type": "address"
        },
        {
          "internalType": "string",
          "name": "_name",
          "type": "string"
        },
        {
          "internalType": "uint256",
          "name": "_nzones",
          "type": "uint256"
        }
      ],
      "stateMutability": "nonpayable",
      "type": "constructor"
    },
    {
      "anonymous": false,
      "inputs": [
        {
          "indexed": false,
          "internalType": "address",
          "name": "member",
          "type": "address"
        },
        {
          "indexed": false,
          "internalType": "string",
          "name": "name",
          "type": "string"
        }
      ],
      "name": "AddedMember",
      "type": "event"
    },
    {
      "anonymous": false,
      "inputs": [
        {
          "indexed": false,
          "internalType": "string",
          "name": "namefrom",
          "type": "string"
        },
        {
          "indexed": false,
          "internalType": "string",
          "name": "nameto",
          "type": "string"
        }
      ],
      "name": "ChangedName",
      "type": "event"
    },
    {
      "anonymous": false,
      "inputs": [
        {
          "indexed": false,
          "internalType": "address",
          "name": "holon",
          "type": "address"
        },
        {
          "indexed": false,
          "internalType": "string",
          "name": "token",
          "type": "string"
        },
        {
          "indexed": false,
          "internalType": "uint256",
          "name": "amount",
          "type": "uint256"
        }
      ],
      "name": "HolonRewarded",
      "type": "event"
    },
    {
      "anonymous": false,
      "inputs": [
        {
          "indexed": false,
          "internalType": "address",
          "name": "member",
          "type": "address"
        },
        {
          "indexed": false,
          "internalType": "string",
          "name": "token",
          "type": "string"
        },
        {
          "indexed": false,
          "internalType": "uint256",
          "name": "amount",
          "type": "uint256"
        }
      ],
      "name": "MemberRewarded",
      "type": "event"
    },
    {
      "anonymous": false,
      "inputs": [
        {
          "indexed": false,
          "internalType": "address",
          "name": "member",
          "type": "address"
        },
        {
          "indexed": false,
          "internalType": "string",
          "name": "name",
          "type": "string"
        }
      ],
      "name": "RemovedMember",
      "type": "event"
    },
    {
      "stateMutability": "payable",
      "type": "fallback"
    },
    {
      "inputs": [
        {
          "internalType": "address",
          "name": "_memberaddress",
          "type": "address"
        },
        {
          "internalType": "string",
          "name": "_membername",
          "type": "string"
        }
      ],
      "name": "addMember",
      "outputs": [],
      "stateMutability": "nonpayable",
      "type": "function"
    },
    {
      "inputs": [
        {
          "internalType": "address",
          "name": "_parentaddress",
          "type": "address"
        }
      ],
      "name": "addParent",
      "outputs": [],
      "stateMutability": "nonpayable",
      "type": "function"
    },
    {
      "inputs": [
        {
          "internalType": "address",
          "name": "_address",
          "type": "address"
        },
        {
          "internalType": "string",
          "name": "_name",
          "type": "string"
        }
      ],
      "name": "changeName",
      "outputs": [],
      "stateMutability": "nonpayable",
      "type": "function"
    },
    {
      "inputs": [],
      "name": "creator",
      "outputs": [
        {
          "internalType": "address",
          "name": "",
          "type": "address"
        }
      ],
      "stateMutability": "view",
      "type": "function"
    },
    {
      "inputs": [],
      "name": "flavor",
      "outputs": [
        {
          "internalType": "string",
          "name": "",
          "type": "string"
        }
      ],
      "stateMutability": "view",
      "type": "function"
    },
    {
      "inputs": [],
      "name": "getSize",
      "outputs": [
        {
          "internalType": "uint256",
          "name": "",
          "type": "uint256"
        }
      ],
      "stateMutability": "view",
      "type": "function"
    },
    {
      "inputs": [
        {
          "internalType": "address",
          "name": "",
          "type": "address"
        }
      ],
      "name": "isMember",
      "outputs": [
        {
          "internalType": "bool",
          "name": "",
          "type": "bool"
        }
      ],
      "stateMutability": "view",
      "type": "function"
    },
    {
      "inputs": [],
      "name": "listMembers",
      "outputs": [
        {
          "internalType": "address payable[]",
          "name": "",
          "type": "address[]"
        }
      ],
      "stateMutability": "view",
      "type": "function"
    },
    {
      "inputs": [],
      "name": "listParents",
      "outputs": [
        {
          "internalType": "address[]",
          "name": "",
          "type": "address[]"
        }
      ],
      "stateMutability": "view",
      "type": "function"
    },
    {
      "inputs": [],
      "name": "manifest",
      "outputs": [
        {
          "internalType": "string",
          "name": "",
          "type": "string"
        }
      ],
      "stateMutability": "view",
      "type": "function"
    },
    {
      "inputs": [],
      "name": "name",
      "outputs": [
        {
          "internalType": "string",
          "name": "",
          "type": "string"
        }
      ],
      "stateMutability": "view",
      "type": "function"
    },
    {
      "inputs": [
        {
          "internalType": "string",
          "name": "_flavor",
          "type": "string"
        },
        {
          "internalType": "string",
          "name": "_name",
          "type": "string"
        },
        {
          "internalType": "uint256",
          "name": "_parameter",
          "type": "uint256"
        }
      ],
      "name": "newHolon",
      "outputs": [
        {
          "internalType": "address",
          "name": "",
          "type": "address"
        }
      ],
      "stateMutability": "nonpayable",
      "type": "function"
    },
    {
      "inputs": [],
      "name": "nzones",
      "outputs": [
        {
          "internalType": "uint256",
          "name": "",
          "type": "uint256"
        }
      ],
      "stateMutability": "view",
      "type": "function"
    },
    {
      "inputs": [
        {
          "internalType": "address",
          "name": "_memberaddress",
          "type": "address"
        }
      ],
      "name": "removeMember",
      "outputs": [],
      "stateMutability": "nonpayable",
      "type": "function"
    },
    {
      "inputs": [
        {
          "internalType": "string",
          "name": "_IPFSHash",
          "type": "string"
        }
      ],
      "name": "setManifest",
      "outputs": [],
      "stateMutability": "nonpayable",
      "type": "function"
    },
    {
      "inputs": [
        {
          "internalType": "string",
          "name": "",
          "type": "string"
        }
      ],
      "name": "toAddress",
      "outputs": [
        {
          "internalType": "address",
          "name": "",
          "type": "address"
        }
      ],
      "stateMutability": "view",
      "type": "function"
    },
    {
      "inputs": [
        {
          "internalType": "address",
          "name": "",
          "type": "address"
        }
      ],
      "name": "toName",
      "outputs": [
        {
          "internalType": "string",
          "name": "",
          "type": "string"
        }
      ],
      "stateMutability": "view",
      "type": "function"
    },
    {
      "inputs": [],
      "name": "version",
      "outputs": [
        {
          "internalType": "string",
          "name": "",
          "type": "string"
        }
      ],
      "stateMutability": "view",
      "type": "function"
    },
    {
      "inputs": [
        {
          "internalType": "address",
          "name": "",
          "type": "address"
        }
      ],
      "name": "zone",
      "outputs": [
        {
          "internalType": "uint256",
          "name": "",
          "type": "uint256"
        }
      ],
      "stateMutability": "view",
      "type": "function"
    },
    {
      "inputs": [
        {
          "internalType": "uint256",
          "name": "",
          "type": "uint256"
        },
        {
          "internalType": "uint256",
          "name": "",
          "type": "uint256"
        }
      ],
      "name": "zonemembers",
      "outputs": [
        {
          "internalType": "address",
          "name": "",
          "type": "address"
        }
      ],
      "stateMutability": "view",
      "type": "function"
    },
    {
      "stateMutability": "payable",
      "type": "receive"
    },
    {
      "inputs": [
        {
          "internalType": "address",
          "name": "_tokenaddress",
          "type": "address"
        },
        {
          "internalType": "uint256",
          "name": "_tokenamount",
          "type": "uint256"
        }
      ],
      "name": "reward",
      "outputs": [],
      "stateMutability": "payable",
      "type": "function"
    },
    {
      "inputs": [
        {
          "internalType": "address",
          "name": "_memberaddress",
          "type": "address"
        },
        {
          "internalType": "uint256",
          "name": "_zone",
          "type": "uint256"
        }
      ],
      "name": "addToZone",
      "outputs": [],
      "stateMutability": "nonpayable",
      "type": "function"
    }
  ],
  "bytecode": "0x60806040523480156200001157600080fd5b50604051620039e9380380620039e9833981810160405281019062000037919062000338565b32600260006101000a81548173ffffffffffffffffffffffffffffffffffffffff021916908373ffffffffffffffffffffffffffffffffffffffff160217905550816007908051906020019062000090929190620001e8565b5082600a60006101000a81548173ffffffffffffffffffffffffffffffffffffffff021916908373ffffffffffffffffffffffffffffffffffffffff1602179055506040518060400160405280600581526020017f5a6f6e6564000000000000000000000000000000000000000000000000000000815250600990805190602001906200011f929190620001e8565b5080600b8190555080600d60003273ffffffffffffffffffffffffffffffffffffffff1673ffffffffffffffffffffffffffffffffffffffff16815260200190815260200160002081905550600c6000828152602001908152602001600020329080600181540180825580915050600190039060005260206000200160009091909190916101000a81548173ffffffffffffffffffffffffffffffffffffffff021916908373ffffffffffffffffffffffffffffffffffffffff1602179055505050506200054a565b828054620001f69062000482565b90600052602060002090601f0160209004810192826200021a576000855562000266565b82601f106200023557805160ff191683800117855562000266565b8280016001018555821562000266579182015b828111156200026557825182559160200191906001019062000248565b5b50905062000275919062000279565b5090565b5b80821115620002945760008160009055506001016200027a565b5090565b6000620002af620002a984620003db565b620003a7565b905082815260208101848484011115620002c857600080fd5b620002d58482856200044c565b509392505050565b600081519050620002ee8162000516565b92915050565b600082601f8301126200030657600080fd5b81516200031884826020860162000298565b91505092915050565b600081519050620003328162000530565b92915050565b6000806000606084860312156200034e57600080fd5b60006200035e86828701620002dd565b935050602084015167ffffffffffffffff8111156200037c57600080fd5b6200038a86828701620002f4565b92505060406200039d8682870162000321565b9150509250925092565b6000604051905081810181811067ffffffffffffffff82111715620003d157620003d0620004e7565b5b8060405250919050565b600067ffffffffffffffff821115620003f957620003f8620004e7565b5b601f19601f8301169050602081019050919050565b60006200041b8262000422565b9050919050565b600073ffffffffffffffffffffffffffffffffffffffff82169050919050565b6000819050919050565b60005b838110156200046c5780820151818401526020810190506200044f565b838111156200047c576000848401525b50505050565b600060028204905060018216806200049b57607f821691505b60208210811415620004b257620004b1620004b8565b5b50919050565b7f4e487b7100000000000000000000000000000000000000000000000000000000600052602260045260246000fd5b7f4e487b7100000000000000000000000000000000000000000000000000000000600052604160045260246000fd5b62000521816200040e565b81146200052d57600080fd5b50565b6200053b8162000442565b81146200054757600080fd5b50565b61348f806200055a6000396000f3fe6080604052600436106101395760003560e01c80637e4115ba116100ab578063b6afd2ca1161006f578063b6afd2ca14610449578063c127c24714610474578063de8fa4311461049d578063ead62520146104c8578063f59e4f6514610505578063f5baf0d7146105305761014b565b80637e4115ba1461032c57806381bc3f8c146103695780638306071b146103a6578063a230c524146103e3578063acf36e53146104205761014b565b806329b84d09116100fd57806329b84d09146102305780633113a2ae1461025957806333d6e65f1461028457806345ca25ed146102af57806354fd4d50146102d857806361c72e51146103035761014b565b806302d05d3f1461015857806306fdde03146101835780630b1ca49a146101ae5780630babba86146101d757806321670f22146102145761014b565b3661014b5761014960003461055b565b005b61015660003461055b565b005b34801561016457600080fd5b5061016d610b1c565b60405161017a9190612d86565b60405180910390f35b34801561018f57600080fd5b50610198610b42565b6040516101a59190612ed2565b60405180910390f35b3480156101ba57600080fd5b506101d560048036038101906101d09190612417565b610bd0565b005b3480156101e357600080fd5b506101fe60048036038101906101f99190612567565b610fba565b60405161020b9190612d86565b60405180910390f35b61022e600480360381019061022991906124bd565b61055b565b005b34801561023c57600080fd5b5061025760048036038101906102529190612522565b611081565b005b34801561026557600080fd5b5061026e611127565b60405161027b9190612e2a565b60405180910390f35b34801561029057600080fd5b506102996111b5565b6040516102a6919061308b565b60405180910390f35b3480156102bb57600080fd5b506102d660048036038101906102d19190612469565b6111bb565b005b3480156102e457600080fd5b506102ed6113e3565b6040516102fa9190612ed2565b60405180910390f35b34801561030f57600080fd5b5061032a600480360381019061032591906124bd565b611471565b005b34801561033857600080fd5b50610353600480360381019061034e91906125f0565b6118c9565b6040516103609190612d86565b60405180910390f35b34801561037557600080fd5b50610390600480360381019061038b9190612417565b611912565b60405161039d9190612ed2565b60405180910390f35b3480156103b257600080fd5b506103cd60048036038101906103c89190612417565b6119b2565b6040516103da919061308b565b60405180910390f35b3480156103ef57600080fd5b5061040a60048036038101906104059190612417565b6119ca565b6040516104179190612e6e565b60405180910390f35b34801561042c57600080fd5b5061044760048036038101906104429190612417565b6119ea565b005b34801561045557600080fd5b5061045e611a50565b60405161046b9190612e4c565b60405180910390f35b34801561048057600080fd5b5061049b60048036038101906104969190612469565b611ade565b005b3480156104a957600080fd5b506104b2611fed565b6040516104bf919061308b565b60405180910390f35b3480156104d457600080fd5b506104ef60048036038101906104ea919061265a565b611ff9565b6040516104fc9190612d86565b60405180910390f35b34801561051157600080fd5b5061051a612047565b6040516105279190612ed2565b60405180910390f35b34801561053c57600080fd5b506105456120d5565b6040516105529190612ed2565b60405180910390f35b60008060003411801561059a5750600073ffffffffffffffffffffffffffffffffffffffff168473ffffffffffffffffffffffffffffffffffffffff16145b156105ab573492506001915061067a565b839050828173ffffffffffffffffffffffffffffffffffffffff166370a08231306040518263ffffffff1660e01b81526004016105e89190612d86565b60206040518083038186803b15801561060057600080fd5b505afa158015610614573d6000803e3d6000fd5b505050506040513d601f19601f820116820180604052508101906106389190612631565b1015610679576040517f08c379a00000000000000000000000000000000000000000000000000000000081526004016106709061300b565b60405180910390fd5b5b600080600190505b600b548111610b14576000600c6000838152602001908152602001600020805490501115610b01576106dc600c6000838152602001908152602001600020805490506106ce8388612163565b61217b90919063ffffffff16565b915060005b600c600083815260200190815260200160002080549050811015610aff576000831115610aec578415610835576000600c6000848152602001908152602001600020828154811061075b577f4e487b7100000000000000000000000000000000000000000000000000000000600052603260045260246000fd5b9060005260206000200160009054906101000a900473ffffffffffffffffffffffffffffffffffffffff1673ffffffffffffffffffffffffffffffffffffffff16846040516107a990612d71565b60006040518083038185875af1925050503d80600081146107e6576040519150601f19603f3d011682016040523d82523d6000602084013e6107eb565b606091505b505090508061082f576040517f08c379a000000000000000000000000000000000000000000000000000000000815260040161082690612f2b565b60405180910390fd5b50610aeb565b8373ffffffffffffffffffffffffffffffffffffffff1663a9059cbb600c6000858152602001908152602001600020838154811061089c577f4e487b7100000000000000000000000000000000000000000000000000000000600052603260045260246000fd5b9060005260206000200160009054906101000a900473ffffffffffffffffffffffffffffffffffffffff16856040518363ffffffff1660e01b81526004016108e5929190612e01565b602060405180830381600087803b1580156108ff57600080fd5b505af1158015610913573d6000803e3d6000fd5b505050506040513d601f19601f8201168201806040525081019061093791906124f9565b506000600c60008481526020019081526020016000208281548110610985577f4e487b7100000000000000000000000000000000000000000000000000000000600052603260045260246000fd5b9060005260206000200160009054906101000a900473ffffffffffffffffffffffffffffffffffffffff1673ffffffffffffffffffffffffffffffffffffffff1688856040516024016109d9929190612e01565b6040516020818303038152906040527f21670f22000000000000000000000000000000000000000000000000000000007bffffffffffffffffffffffffffffffffffffffffffffffffffffffff19166020820180517bffffffffffffffffffffffffffffffffffffffffffffffffffffffff8381831617835250505050604051610a639190612d2c565b6000604051808303816000865af19150503d8060008114610aa0576040519150601f19603f3d011682016040523d82523d6000602084013e610aa5565b606091505b5050905080610ae9576040517f08c379a0000000000000000000000000000000000000000000000000000000008152600401610ae090612f6b565b60405180910390fd5b505b5b8080610af7906132fe565b9150506106e1565b505b8080610b0c906132fe565b915050610682565b505050505050565b600a60009054906101000a900473ffffffffffffffffffffffffffffffffffffffff1681565b60078054610b4f906132cc565b80601f0160208091040260200160405190810160405280929190818152602001828054610b7b906132cc565b8015610bc85780601f10610b9d57610100808354040283529160200191610bc8565b820191906000526020600020905b815481529060010190602001808311610bab57829003601f168201915b505050505081565b60005b600080549050811015610d7b578173ffffffffffffffffffffffffffffffffffffffff1660008281548110610c31577f4e487b7100000000000000000000000000000000000000000000000000000000600052603260045260246000fd5b9060005260206000200160009054906101000a900473ffffffffffffffffffffffffffffffffffffffff1673ffffffffffffffffffffffffffffffffffffffff161415610d68576000808054905081548110610cb6577f4e487b7100000000000000000000000000000000000000000000000000000000600052603260045260246000fd5b9060005260206000200160009054906101000a900473ffffffffffffffffffffffffffffffffffffffff1660008281548110610d1b577f4e487b7100000000000000000000000000000000000000000000000000000000600052603260045260246000fd5b9060005260206000200160006101000a81548173ffffffffffffffffffffffffffffffffffffffff021916908373ffffffffffffffffffffffffffffffffffffffff160217905550610d7b565b8080610d73906132fe565b915050610bd3565b506000805480610db4577f4e487b7100000000000000000000000000000000000000000000000000000000600052603160045260246000fd5b6001900381819060005260206000200160006101000a81549073ffffffffffffffffffffffffffffffffffffffff021916905590556000600460008373ffffffffffffffffffffffffffffffffffffffff1673ffffffffffffffffffffffffffffffffffffffff16815260200190815260200160002060006101000a81548160ff0219169083151502179055507f982d6fac85d22cbbe833f9fe4278a909ca0f3b24ecc8b1f10fe63736e3c7231381600660008473ffffffffffffffffffffffffffffffffffffffff1673ffffffffffffffffffffffffffffffffffffffff168152602001908152602001600020604051610eb0929190612dd1565b60405180910390a160006005600660008473ffffffffffffffffffffffffffffffffffffffff1673ffffffffffffffffffffffffffffffffffffffff168152602001908152602001600020604051610f089190612d5a565b908152602001604051809103902060006101000a81548173ffffffffffffffffffffffffffffffffffffffff021916908373ffffffffffffffffffffffffffffffffffffffff16021790555060405180602001604052806000815250600660008373ffffffffffffffffffffffffffffffffffffffff1673ffffffffffffffffffffffffffffffffffffffff1681526020019081526020016000209080519060200190610fb69291906121d3565b5050565b600080600a60009054906101000a900473ffffffffffffffffffffffffffffffffffffffff1690508073ffffffffffffffffffffffffffffffffffffffff16630babba8688888888886040518663ffffffff1660e01b8152600401611023959493929190612e89565b602060405180830381600087803b15801561103d57600080fd5b505af1158015611051573d6000803e3d6000fd5b505050506040513d601f19601f820116820180604052508101906110759190612440565b91505095945050505050565b600260009054906101000a900473ffffffffffffffffffffffffffffffffffffffff1673ffffffffffffffffffffffffffffffffffffffff163373ffffffffffffffffffffffffffffffffffffffff1614611111576040517f08c379a000000000000000000000000000000000000000000000000000000000815260040161110890612fab565b60405180910390fd5b818160039190611122929190612259565b505050565b606060018054806020026020016040519081016040528092919081815260200182805480156111ab57602002820191906000526020600020905b8160009054906101000a900473ffffffffffffffffffffffffffffffffffffffff1673ffffffffffffffffffffffffffffffffffffffff1681526020019060010190808311611161575b5050505050905090565b600b5481565b3373ffffffffffffffffffffffffffffffffffffffff168273ffffffffffffffffffffffffffffffffffffffff1614806112425750600260009054906101000a900473ffffffffffffffffffffffffffffffffffffffff1673ffffffffffffffffffffffffffffffffffffffff163373ffffffffffffffffffffffffffffffffffffffff16145b8061127857503273ffffffffffffffffffffffffffffffffffffffff168273ffffffffffffffffffffffffffffffffffffffff16145b6112b7576040517f08c379a00000000000000000000000000000000000000000000000000000000081526004016112ae9061304b565b60405180910390fd5b816005826040516112c89190612d43565b908152602001604051809103902060006101000a81548173ffffffffffffffffffffffffffffffffffffffff021916908373ffffffffffffffffffffffffffffffffffffffff1602179055507ffdcc9059d3426f73949b49e5d977553aa298184439da800d66f48959d9cc76b0600660008473ffffffffffffffffffffffffffffffffffffffff1673ffffffffffffffffffffffffffffffffffffffff16815260200190815260200160002082604051611383929190612ef4565b60405180910390a180600660008473ffffffffffffffffffffffffffffffffffffffff1673ffffffffffffffffffffffffffffffffffffffff16815260200190815260200160002090805190602001906113de9291906121d3565b505050565b600880546113f0906132cc565b80601f016020809104026020016040519081016040528092919081815260200182805461141c906132cc565b80156114695780601f1061143e57610100808354040283529160200191611469565b820191906000526020600020905b81548152906001019060200180831161144c57829003601f168201915b505050505081565b80600d60003373ffffffffffffffffffffffffffffffffffffffff1673ffffffffffffffffffffffffffffffffffffffff1681526020019081526020016000205410156114f3576040517f08c379a00000000000000000000000000000000000000000000000000000000081526004016114ea9061302b565b60405180910390fd5b6000600d60008473ffffffffffffffffffffffffffffffffffffffff1673ffffffffffffffffffffffffffffffffffffffff16815260200190815260200160002054111561180d576000600d60008473ffffffffffffffffffffffffffffffffffffffff1673ffffffffffffffffffffffffffffffffffffffff16815260200190815260200160002054905060005b600c60008381526020019081526020016000208054905081101561178c578373ffffffffffffffffffffffffffffffffffffffff16600c60008481526020019081526020016000208281548110611602577f4e487b7100000000000000000000000000000000000000000000000000000000600052603260045260246000fd5b9060005260206000200160009054906101000a900473ffffffffffffffffffffffffffffffffffffffff1673ffffffffffffffffffffffffffffffffffffffff16141561177957600c60008381526020019081526020016000206001600c60008581526020019081526020016000208054905061167f91906131fc565b815481106116b6577f4e487b7100000000000000000000000000000000000000000000000000000000600052603260045260246000fd5b9060005260206000200160009054906101000a900473ffffffffffffffffffffffffffffffffffffffff16600c6000848152602001908152602001600020828154811061172c577f4e487b7100000000000000000000000000000000000000000000000000000000600052603260045260246000fd5b9060005260206000200160006101000a81548173ffffffffffffffffffffffffffffffffffffffff021916908373ffffffffffffffffffffffffffffffffffffffff16021790555061178c565b8080611784906132fe565b915050611582565b50600c60008281526020019081526020016000208054806117d6577f4e487b7100000000000000000000000000000000000000000000000000000000600052603160045260246000fd5b6001900381819060005260206000200160006101000a81549073ffffffffffffffffffffffffffffffffffffffff02191690559055505b80600d60008473ffffffffffffffffffffffffffffffffffffffff1673ffffffffffffffffffffffffffffffffffffffff16815260200190815260200160002081905550600c6000828152602001908152602001600020829080600181540180825580915050600190039060005260206000200160009091909190916101000a81548173ffffffffffffffffffffffffffffffffffffffff021916908373ffffffffffffffffffffffffffffffffffffffff1602179055505050565b6005818051602081018201805184825260208301602085012081835280955050505050506000915054906101000a900473ffffffffffffffffffffffffffffffffffffffff1681565b60066020528060005260406000206000915090508054611931906132cc565b80601f016020809104026020016040519081016040528092919081815260200182805461195d906132cc565b80156119aa5780601f1061197f576101008083540402835291602001916119aa565b820191906000526020600020905b81548152906001019060200180831161198d57829003601f168201915b505050505081565b600d6020528060005260406000206000915090505481565b60046020528060005260406000206000915054906101000a900460ff1681565b6001819080600181540180825580915050600190039060005260206000200160009091909190916101000a81548173ffffffffffffffffffffffffffffffffffffffff021916908373ffffffffffffffffffffffffffffffffffffffff16021790555050565b60606000805480602002602001604051908101604052809291908181526020018280548015611ad457602002820191906000526020600020905b8160009054906101000a900473ffffffffffffffffffffffffffffffffffffffff1673ffffffffffffffffffffffffffffffffffffffff1681526020019060010190808311611a8a575b5050505050905090565b60011515600460003373ffffffffffffffffffffffffffffffffffffffff1673ffffffffffffffffffffffffffffffffffffffff16815260200190815260200160002060009054906101000a900460ff1615151480611b8a57503373ffffffffffffffffffffffffffffffffffffffff16600260009054906101000a900473ffffffffffffffffffffffffffffffffffffffff1673ffffffffffffffffffffffffffffffffffffffff16145b611bc9576040517f08c379a0000000000000000000000000000000000000000000000000000000008152600401611bc09061306b565b60405180910390fd5b60001515600460008473ffffffffffffffffffffffffffffffffffffffff1673ffffffffffffffffffffffffffffffffffffffff16815260200190815260200160002060009054906101000a900460ff16151514611c5c576040517f08c379a0000000000000000000000000000000000000000000000000000000008152600401611c5390612feb565b60405180910390fd5b600073ffffffffffffffffffffffffffffffffffffffff16600582604051611c849190612d43565b908152602001604051809103902060009054906101000a900473ffffffffffffffffffffffffffffffffffffffff1673ffffffffffffffffffffffffffffffffffffffff1614611d09576040517f08c379a0000000000000000000000000000000000000000000000000000000008152600401611d0090612fcb565b60405180910390fd5b6000829080600181540180825580915050600190039060005260206000200160009091909190916101000a81548173ffffffffffffffffffffffffffffffffffffffff021916908373ffffffffffffffffffffffffffffffffffffffff16021790555080600660008473ffffffffffffffffffffffffffffffffffffffff1673ffffffffffffffffffffffffffffffffffffffff1681526020019081526020016000209080519060200190611dbf9291906121d3565b5081600582604051611dd19190612d43565b908152602001604051809103902060006101000a81548173ffffffffffffffffffffffffffffffffffffffff021916908373ffffffffffffffffffffffffffffffffffffffff1602179055506001600460008473ffffffffffffffffffffffffffffffffffffffff1673ffffffffffffffffffffffffffffffffffffffff16815260200190815260200160002060006101000a81548160ff02191690831515021790555060008273ffffffffffffffffffffffffffffffffffffffff1630604051602401611e9f9190612d86565b6040516020818303038152906040527facf36e53000000000000000000000000000000000000000000000000000000007bffffffffffffffffffffffffffffffffffffffffffffffffffffffff19166020820180517bffffffffffffffffffffffffffffffffffffffffffffffffffffffff8381831617835250505050604051611f299190612d2c565b6000604051808303816000865af19150503d8060008114611f66576040519150601f19603f3d011682016040523d82523d6000602084013e611f6b565b606091505b5050905080611faf576040517f08c379a0000000000000000000000000000000000000000000000000000000008152600401611fa690612f4b565b60405180910390fd5b7f7c803c00251fe8138e27cfa8286be8d98625e5f6476ca6ca594f682362b711208383604051611fe0929190612da1565b60405180910390a1505050565b60008080549050905090565b600c602052816000526040600020818154811061201557600080fd5b906000526020600020016000915091509054906101000a900473ffffffffffffffffffffffffffffffffffffffff1681565b60098054612054906132cc565b80601f0160208091040260200160405190810160405280929190818152602001828054612080906132cc565b80156120cd5780601f106120a2576101008083540402835291602001916120cd565b820191906000526020600020905b8154815290600101906020018083116120b057829003601f168201915b505050505081565b600380546120e2906132cc565b80601f016020809104026020016040519081016040528092919081815260200182805461210e906132cc565b801561215b5780601f106121305761010080835404028352916020019161215b565b820191906000526020600020905b81548152906001019060200180831161213e57829003601f168201915b505050505081565b6000600b548261217391906131cb565b905092915050565b60008082116121bf576040517f08c379a00000000000000000000000000000000000000000000000000000000081526004016121b690612f8b565b60405180910390fd5b81836121cb91906131cb565b905092915050565b8280546121df906132cc565b90600052602060002090601f0160209004810192826122015760008555612248565b82601f1061221a57805160ff1916838001178555612248565b82800160010185558215612248579182015b8281111561224757825182559160200191906001019061222c565b5b50905061225591906122df565b5090565b828054612265906132cc565b90600052602060002090601f01602090048101928261228757600085556122ce565b82601f106122a057803560ff19168380011785556122ce565b828001600101855582156122ce579182015b828111156122cd5782358255916020019190600101906122b2565b5b5090506122db91906122df565b5090565b5b808211156122f85760008160009055506001016122e0565b5090565b600061230f61230a846130d7565b6130a6565b90508281526020810184848401111561232757600080fd5b61233284828561328a565b509392505050565b60008135905061234981613414565b92915050565b60008151905061235e81613414565b92915050565b6000815190506123738161342b565b92915050565b60008083601f84011261238b57600080fd5b8235905067ffffffffffffffff8111156123a457600080fd5b6020830191508360018202830111156123bc57600080fd5b9250929050565b600082601f8301126123d457600080fd5b81356123e48482602086016122fc565b91505092915050565b6000813590506123fc81613442565b92915050565b60008151905061241181613442565b92915050565b60006020828403121561242957600080fd5b60006124378482850161233a565b91505092915050565b60006020828403121561245257600080fd5b60006124608482850161234f565b91505092915050565b6000806040838503121561247c57600080fd5b600061248a8582860161233a565b925050602083013567ffffffffffffffff8111156124a757600080fd5b6124b3858286016123c3565b9150509250929050565b600080604083850312156124d057600080fd5b60006124de8582860161233a565b92505060206124ef858286016123ed565b9150509250929050565b60006020828403121561250b57600080fd5b600061251984828501612364565b91505092915050565b6000806020838503121561253557600080fd5b600083013567ffffffffffffffff81111561254f57600080fd5b61255b85828601612379565b92509250509250929050565b60008060008060006060868803121561257f57600080fd5b600086013567ffffffffffffffff81111561259957600080fd5b6125a588828901612379565b9550955050602086013567ffffffffffffffff8111156125c457600080fd5b6125d088828901612379565b935093505060406125e3888289016123ed565b9150509295509295909350565b60006020828403121561260257600080fd5b600082013567ffffffffffffffff81111561261c57600080fd5b612628848285016123c3565b91505092915050565b60006020828403121561264357600080fd5b600061265184828501612402565b91505092915050565b6000806040838503121561266d57600080fd5b600061267b858286016123ed565b925050602061268c858286016123ed565b9150509250929050565b60006126a283836126c6565b60208301905092915050565b60006126ba83836126d5565b60208301905092915050565b6126cf81613242565b82525050565b6126de81613230565b82525050565b6126ed81613230565b82525050565b60006126fe8261313c565b6127088185613182565b935061271383613107565b8060005b8381101561274457815161272b88826126ae565b975061273683613168565b925050600181019050612717565b5085935050505092915050565b600061275c82613147565b6127668185613193565b935061277183613117565b8060005b838110156127a25781516127898882612696565b975061279483613175565b925050600181019050612775565b5085935050505092915050565b6127b881613254565b82525050565b60006127c982613152565b6127d381856131a4565b93506127e3818560208601613299565b80840191505092915050565b60006127fb83856131af565b935061280883858461328a565b61281183613403565b840190509392505050565b60006128278261315d565b61283181856131af565b9350612841818560208601613299565b61284a81613403565b840191505092915050565b60006128608261315d565b61286a81856131c0565b935061287a818560208601613299565b80840191505092915050565b60008154612893816132cc565b61289d81866131af565b945060018216600081146128b857600181146128ca576128fd565b60ff19831686526020860193506128fd565b6128d385613127565b60005b838110156128f5578154818901526001820191506020810190506128d6565b808801955050505b50505092915050565b60008154612913816132cc565b61291d81866131c0565b9450600182166000811461293857600181146129495761297c565b60ff1983168652818601935061297c565b61295285613127565b60005b8381101561297457815481890152600182019150602081019050612955565b838801955050505b50505092915050565b6000612992600f836131af565b91507f5472616e73666572206661696c656400000000000000000000000000000000006000830152602082019050919050565b60006129d26017836131af565b91507f4661696c656420746f2063726561746520706172656e740000000000000000006000830152602082019050919050565b6000612a126022836131af565b91507f556e61626c6520746f2063616c6c20746865207265776172642066756e63746960008301527f6f6e0000000000000000000000000000000000000000000000000000000000006020830152604082019050919050565b6000612a78601a836131af565b91507f536166654d6174683a206469766973696f6e206279207a65726f0000000000006000830152602082019050919050565b6000612ab8601f836131af565b91507f4f6e6c79206f776e65722063616e2073657420746865206d616e6966657374006000830152602082019050919050565b6000612af86015836131af565b91507f4e616d6520697320616c72656164792074616b656e00000000000000000000006000830152602082019050919050565b6000612b386014836131af565b91507f4d656d62657220616c72656164792061646465640000000000000000000000006000830152602082019050919050565b6000612b786021836131af565b91507f4e6f7420656e6f75676820746f6b656e7320696e2074686520636f6e7472616360008301527f74000000000000000000000000000000000000000000000000000000000000006020830152604082019050919050565b6000612bde6035836131af565b91507f6d656d6265727320696e206c6f776572207a6f6e65732063616e6e6f7420707260008301527f6f6d6f746520746f20686967686572207a6f6e657300000000000000000000006020830152604082019050919050565b6000612c446000836131a4565b9150600082019050919050565b6000612c5e6032836131af565b91507f4e616d65206368616e67652072657175657374206e6f742073656e742066726f60008301527f6d206d656d626572206e6f72206f776e657200000000000000000000000000006020830152604082019050919050565b6000612cc46029836131af565b91507f52657175657374207375626d69747465642062792061206e6f6e2d6d656d626560008301527f72206164647265737300000000000000000000000000000000000000000000006020830152604082019050919050565b612d2681613280565b82525050565b6000612d3882846127be565b915081905092915050565b6000612d4f8284612855565b915081905092915050565b6000612d668284612906565b915081905092915050565b6000612d7c82612c37565b9150819050919050565b6000602082019050612d9b60008301846126e4565b92915050565b6000604082019050612db660008301856126e4565b8181036020830152612dc8818461281c565b90509392505050565b6000604082019050612de660008301856126e4565b8181036020830152612df88184612886565b90509392505050565b6000604082019050612e1660008301856126e4565b612e236020830184612d1d565b9392505050565b60006020820190508181036000830152612e4481846126f3565b905092915050565b60006020820190508181036000830152612e668184612751565b905092915050565b6000602082019050612e8360008301846127af565b92915050565b60006060820190508181036000830152612ea48187896127ef565b90508181036020830152612eb98185876127ef565b9050612ec86040830184612d1d565b9695505050505050565b60006020820190508181036000830152612eec818461281c565b905092915050565b60006040820190508181036000830152612f0e8185612886565b90508181036020830152612f22818461281c565b90509392505050565b60006020820190508181036000830152612f4481612985565b9050919050565b60006020820190508181036000830152612f64816129c5565b9050919050565b60006020820190508181036000830152612f8481612a05565b9050919050565b60006020820190508181036000830152612fa481612a6b565b9050919050565b60006020820190508181036000830152612fc481612aab565b9050919050565b60006020820190508181036000830152612fe481612aeb565b9050919050565b6000602082019050818103600083015261300481612b2b565b9050919050565b6000602082019050818103600083015261302481612b6b565b9050919050565b6000602082019050818103600083015261304481612bd1565b9050919050565b6000602082019050818103600083015261306481612c51565b9050919050565b6000602082019050818103600083015261308481612cb7565b9050919050565b60006020820190506130a06000830184612d1d565b92915050565b6000604051905081810181811067ffffffffffffffff821117156130cd576130cc6133d4565b5b8060405250919050565b600067ffffffffffffffff8211156130f2576130f16133d4565b5b601f19601f8301169050602081019050919050565b6000819050602082019050919050565b6000819050602082019050919050565b60008190508160005260206000209050919050565b600081519050919050565b600081519050919050565b600081519050919050565b600081519050919050565b6000602082019050919050565b6000602082019050919050565b600082825260208201905092915050565b600082825260208201905092915050565b600081905092915050565b600082825260208201905092915050565b600081905092915050565b60006131d682613280565b91506131e183613280565b9250826131f1576131f0613376565b5b828204905092915050565b600061320782613280565b915061321283613280565b92508282101561322557613224613347565b5b828203905092915050565b600061323b82613260565b9050919050565b600061324d82613260565b9050919050565b60008115159050919050565b600073ffffffffffffffffffffffffffffffffffffffff82169050919050565b6000819050919050565b82818337600083830152505050565b60005b838110156132b757808201518184015260208101905061329c565b838111156132c6576000848401525b50505050565b600060028204905060018216806132e457607f821691505b602082108114156132f8576132f76133a5565b5b50919050565b600061330982613280565b91507fffffffffffffffffffffffffffffffffffffffffffffffffffffffffffffffff82141561333c5761333b613347565b5b600182019050919050565b7f4e487b7100000000000000000000000000000000000000000000000000000000600052601160045260246000fd5b7f4e487b7100000000000000000000000000000000000000000000000000000000600052601260045260246000fd5b7f4e487b7100000000000000000000000000000000000000000000000000000000600052602260045260246000fd5b7f4e487b7100000000000000000000000000000000000000000000000000000000600052604160045260246000fd5b6000601f19601f8301169050919050565b61341d81613230565b811461342857600080fd5b50565b61343481613254565b811461343f57600080fd5b50565b61344b81613280565b811461345657600080fd5b5056fea2646970667358221220012f5be9e36a8edf72a02579e573ddb30329ae5e50ed53532097b3cf69996e1564736f6c63430008000033",
  "immutableReferences": {},
  "source": "// SPDX-License-Identifier: GPL-3.0\npragma solidity ^0.8;\n\n/*\n    Copyright 2020, Roberto Valenti\n\n    This program is free software: you can use it, redistribute it and/or modify\n    it under the terms of the Peer Production License as published by\n    the P2P Foundation.\n    \n    https://wiki.p2pfoundation.net/Peer_Production_License\n\n    This program is distributed in the hope that it will be useful,\n    but WITHOUT ANY WARRANTY; without even the implied warranty of\n    MERCHANTABILITY or FITNESS FOR A PARTICULAR PURPOSE.  See the\n    Peer Production License for more details.\n */\n\nimport \"../node_modules/openzeppelin-solidity/contracts/math/SafeMath.sol\";\nimport \"../node_modules/openzeppelin-solidity/contracts/token/ERC20/IERC20.sol\";\nimport \"./IHolonFactory.sol\";\nimport \"./Holon.sol\";\n\n contract Zoned is Holon{\n    using SafeMath for uint256;\n\n     //======================== Public holon variables\n  \n    uint public nzones;\n    mapping (uint => address[]) public zonemembers;\n    mapping  (address => uint) public zone ;\n\n    /// @notice Constructor to create an holon\n    ///  created the Holon contract, the factory needs to be deployed first\n\n    constructor (address _creator, string  memory _name, uint _nzones)\n    {\n        name = _name;\n        creator = _creator;\n        flavor = \"Zoned\";\n\n        nzones = _nzones;\n        zone[tx.origin]= _nzones;\n        zonemembers[_nzones].push(tx.origin);\n    }\n\n    //=============================================================\n    //                      Reward Functions\n    //=============================================================\n    //these function will be called when a payment is sent to the holon\n\n    /// @dev Splits the ERC20 token amount sent to the holon according to the appreciation\n    /// @notice If appreciation is not shared, it splits it equally across each member (calling BlanketReward)\n    function reward(address _tokenaddress, uint256 _tokenamount)\n        public\n        payable\n        override\n    {\n        bool etherreward;\n        IERC20 token;\n\n        if (msg.value  > 0 && _tokenaddress == address(0)) {\n            _tokenamount = msg.value;\n            etherreward = true;\n        }\n         else {\n            //Load ERC20 token information\n            token = IERC20(_tokenaddress);\n            require (token.balanceOf(address(this)) >= _tokenamount, \"Not enough tokens in the contract\");\n        }\n        \n        uint256  amount;\n        for (uint256 z = 1;  z <= nzones; z++) { //skip zone 0 as unassigned members\n            if (zonemembers[z].length > 0) {\n                amount = rewardFunction(z, _tokenamount).div(zonemembers[z].length); // divide reward equally for all members in the same zone\n                for (uint256 i = 0; i < zonemembers[z].length; i++) {\n            \n            //     if (totalappreciation > 0 ) // if any appreciation was shared\n            //         amount = appreciation[_members[i]].mul( _tokenamount.div(totalappreciation)); //multiply given appreciation with unit reward\n            //     else\n            //         amount = _tokenamount.div(_members.length); //else use blanket unit reward value.\n\n                    if (amount > 0 ){\n                        if (etherreward){\n                            (bool success, ) = zonemembers[z][i].call{value: amount}(\"\");\n                            require(success, \"Transfer failed\");\n                        }\n                        else {\n                            token.transfer(zonemembers[z][i],amount);\n                            (bool success,) = zonemembers[z][i].call(\n                            abi.encodeWithSignature(\"reward(address,uint256)\", _tokenaddress, amount)\n                            );\n                            require(success, \"Unable to call the reward function\" );\n                        }\n                        // MemberRewarded(_members[i], \"ERC20\", amount); TODO\n                    }\n                }\n        // emit HolonRewarded(address(this), \"ERC20\", _tokenamount);TODO\n            }\n        }\n    }\n    \n    function rewardFunction(uint _zone, uint _totalreward) private returns (uint zonereward)\n    {\n\n        return _totalreward / nzones;//(2 ^ (_zone + 1));\n    }\n\n    function addToZone(address _memberaddress, uint _zone) public/// @notice Explain to an end user what this does\n    /// @dev Explain to a developer any extra details\n    /// @param Documents a parameter just like in doxygen (must be followed by parameter name)) private returns (uint zonereward)\n    {\n        require(zone[msg.sender] >= _zone, \"members in lower zones cannot promote to higher zones\"); // ch\n        // TODO Cooloff period for nominations or validation of nomination\n       \n       \n        if (zone[_memberaddress] > 0) {//if member was already in a zone\n             //search and remove member from current group\n            // fetch correct zone members \n            uint previouszone = zone[_memberaddress];\n            for (uint256 i = 0; i < zonemembers[previouszone].length; i++) {\n                if (zonemembers[previouszone][i] == _memberaddress) {\n                zonemembers[previouszone][i] = zonemembers[previouszone][zonemembers[previouszone].length - 1]; //swap position with last member\n                break;\n                }\n            }\n            zonemembers[previouszone].pop(); // remove last member\n        }\n        \n        zone[_memberaddress]= _zone;\n        zonemembers[_zone].push(_memberaddress);\n    }\n}",
  "sourcePath": "/Users/roberto/Projects/Hack-Along/holons/contracts/Zoned.sol",
  "compiler": {
    "name": "solc",
    "version": "0.8.0+commit.c7dfd78e.Emscripten.clang"
  },
  "schemaVersion": "3.4.13",
  "updatedAt": "2023-04-11T09:38:53.182Z",
  "devdoc": {
    "kind": "dev",
    "methods": {
      "changeName(address,string)": {
        "details": "Changes the name of the member",
        "params": {
          "_address": "The address of the member",
          "_name": "The new name of the member"
        }
      },
      "getSize()": {
        "details": "Retrieves the size of the membrane",
        "returns": {
          "_0": "number of members in the membrane"
        }
      },
      "listMembers()": {
        "details": "Retrieves the index of  members in the membrane",
        "returns": {
          "_0": "list of the address of the members"
        }
      },
      "listParents()": {
        "details": "Retrieves the list of parents of the membrane",
        "returns": {
          "_0": "the address of the parents of the membrane"
        }
      },
      "reward(address,uint256)": {
        "details": "Splits the ERC20 token amount sent to the holon according to the appreciation"
      },
      "setManifest(string)": {
        "details": "Sets the hash of the latest IPFS manifest for this membrane",
        "params": {
          "_IPFSHash": "The hash of the IPFS manifest"
        }
      }
    },
    "version": 1
  },
  "userdoc": {
    "kind": "user",
    "methods": {
      "changeName(address,string)": {
        "notice": "only the lead can call this function"
      },
      "constructor": {
        "notice": "Constructor to create an holon  created the Holon contract, the factory needs to be deployed first"
      },
      "newHolon(string,string,uint256)": {
        "notice": "Constructor to create an holon  created the Holon contract, the factory needs to be deployed first"
      },
      "reward(address,uint256)": {
        "notice": "If appreciation is not shared, it splits it equally across each member (calling BlanketReward)"
      },
      "setManifest(string)": {
        "notice": "Only the holon lead can change this!"
      }
    },
    "version": 1
  }
}